{
  "contractName": "ERC20Tornado",
  "abi": [
    {
      "inputs": [
        {
          "internalType": "contract IVerifier",
          "name": "_verifier",
          "type": "address"
        },
        {
          "internalType": "contract IFeeManager",
          "name": "_feeManager",
          "type": "address"
        },
        {
          "internalType": "uint256",
          "name": "_denomination",
          "type": "uint256"
        },
        {
          "internalType": "uint32",
          "name": "_merkleTreeHeight",
          "type": "uint32"
        },
        {
          "internalType": "address",
          "name": "_operator",
          "type": "address"
        },
        {
          "internalType": "address",
          "name": "_token",
          "type": "address"
        }
      ],
      "payable": false,
      "stateMutability": "nonpayable",
      "type": "constructor"
    },
    {
      "anonymous": false,
      "inputs": [
        {
          "indexed": true,
          "internalType": "bytes32",
          "name": "commitment",
          "type": "bytes32"
        },
        {
          "indexed": false,
          "internalType": "uint32",
          "name": "leafIndex",
          "type": "uint32"
        },
        {
          "indexed": false,
          "internalType": "uint256",
          "name": "timestamp",
          "type": "uint256"
        }
      ],
      "name": "Deposit",
      "type": "event"
    },
    {
      "anonymous": false,
      "inputs": [
        {
          "indexed": false,
          "internalType": "address",
          "name": "to",
          "type": "address"
        },
        {
          "indexed": false,
          "internalType": "bytes32",
          "name": "nullifierHash",
          "type": "bytes32"
        },
        {
          "indexed": true,
          "internalType": "address",
          "name": "relayer",
          "type": "address"
        },
        {
          "indexed": false,
          "internalType": "uint256",
          "name": "fee",
          "type": "uint256"
        }
      ],
      "name": "Withdrawal",
      "type": "event"
    },
    {
      "constant": true,
      "inputs": [],
      "name": "FIELD_SIZE",
      "outputs": [
        {
          "internalType": "uint256",
          "name": "",
          "type": "uint256"
        }
      ],
      "payable": false,
      "stateMutability": "view",
      "type": "function"
    },
    {
      "constant": true,
      "inputs": [],
      "name": "ROOT_HISTORY_SIZE",
      "outputs": [
        {
          "internalType": "uint32",
          "name": "",
          "type": "uint32"
        }
      ],
      "payable": false,
      "stateMutability": "view",
      "type": "function"
    },
    {
      "constant": true,
      "inputs": [],
      "name": "ZERO_VALUE",
      "outputs": [
        {
          "internalType": "uint256",
          "name": "",
          "type": "uint256"
        }
      ],
      "payable": false,
      "stateMutability": "view",
      "type": "function"
    },
    {
      "constant": false,
      "inputs": [
        {
          "internalType": "address",
          "name": "_newOperator",
          "type": "address"
        }
      ],
      "name": "changeOperator",
      "outputs": [],
      "payable": false,
      "stateMutability": "nonpayable",
      "type": "function"
    },
    {
      "constant": true,
      "inputs": [
        {
          "internalType": "bytes32",
          "name": "",
          "type": "bytes32"
        }
      ],
      "name": "commitments",
      "outputs": [
        {
          "internalType": "bool",
          "name": "",
          "type": "bool"
        }
      ],
      "payable": false,
      "stateMutability": "view",
      "type": "function"
    },
    {
      "constant": true,
      "inputs": [],
      "name": "currentRootIndex",
      "outputs": [
        {
          "internalType": "uint32",
          "name": "",
          "type": "uint32"
        }
      ],
      "payable": false,
      "stateMutability": "view",
      "type": "function"
    },
    {
      "constant": true,
      "inputs": [],
      "name": "denomination",
      "outputs": [
        {
          "internalType": "uint256",
          "name": "",
          "type": "uint256"
        }
      ],
      "payable": false,
      "stateMutability": "view",
      "type": "function"
    },
    {
      "constant": false,
      "inputs": [
        {
          "internalType": "bytes32",
          "name": "_commitment",
          "type": "bytes32"
        }
      ],
      "name": "deposit",
      "outputs": [],
      "payable": true,
      "stateMutability": "payable",
      "type": "function"
    },
    {
      "constant": true,
      "inputs": [],
      "name": "feeManager",
      "outputs": [
        {
          "internalType": "contract IFeeManager",
          "name": "",
          "type": "address"
        }
      ],
      "payable": false,
      "stateMutability": "view",
      "type": "function"
    },
    {
      "constant": true,
      "inputs": [
        {
          "internalType": "uint256",
          "name": "",
          "type": "uint256"
        }
      ],
      "name": "filledSubtrees",
      "outputs": [
        {
          "internalType": "bytes32",
          "name": "",
          "type": "bytes32"
        }
      ],
      "payable": false,
      "stateMutability": "view",
      "type": "function"
    },
    {
      "constant": true,
      "inputs": [],
      "name": "getLastRoot",
      "outputs": [
        {
          "internalType": "bytes32",
          "name": "",
          "type": "bytes32"
        }
      ],
      "payable": false,
      "stateMutability": "view",
      "type": "function"
    },
    {
      "constant": true,
      "inputs": [
        {
          "internalType": "bytes32",
          "name": "_left",
          "type": "bytes32"
        },
        {
          "internalType": "bytes32",
          "name": "_right",
          "type": "bytes32"
        }
      ],
      "name": "hashLeftRight",
      "outputs": [
        {
          "internalType": "bytes32",
          "name": "",
          "type": "bytes32"
        }
      ],
      "payable": false,
      "stateMutability": "pure",
      "type": "function"
    },
    {
      "constant": true,
      "inputs": [
        {
          "internalType": "bytes32",
          "name": "_root",
          "type": "bytes32"
        }
      ],
      "name": "isKnownRoot",
      "outputs": [
        {
          "internalType": "bool",
          "name": "",
          "type": "bool"
        }
      ],
      "payable": false,
      "stateMutability": "view",
      "type": "function"
    },
    {
      "constant": true,
      "inputs": [
        {
          "internalType": "bytes32",
          "name": "_nullifierHash",
          "type": "bytes32"
        }
      ],
      "name": "isSpent",
      "outputs": [
        {
          "internalType": "bool",
          "name": "",
          "type": "bool"
        }
      ],
      "payable": false,
      "stateMutability": "view",
      "type": "function"
    },
    {
      "constant": true,
      "inputs": [
        {
          "internalType": "bytes32[]",
          "name": "_nullifierHashes",
          "type": "bytes32[]"
        }
      ],
      "name": "isSpentArray",
      "outputs": [
        {
          "internalType": "bool[]",
          "name": "spent",
          "type": "bool[]"
        }
      ],
      "payable": false,
      "stateMutability": "view",
      "type": "function"
    },
    {
      "constant": true,
      "inputs": [],
      "name": "levels",
      "outputs": [
        {
          "internalType": "uint32",
          "name": "",
          "type": "uint32"
        }
      ],
      "payable": false,
      "stateMutability": "view",
      "type": "function"
    },
    {
      "constant": true,
      "inputs": [],
      "name": "nextIndex",
      "outputs": [
        {
          "internalType": "uint32",
          "name": "",
          "type": "uint32"
        }
      ],
      "payable": false,
      "stateMutability": "view",
      "type": "function"
    },
    {
      "constant": true,
      "inputs": [
        {
          "internalType": "bytes32",
          "name": "",
          "type": "bytes32"
        }
      ],
      "name": "nullifierHashes",
      "outputs": [
        {
          "internalType": "bool",
          "name": "",
          "type": "bool"
        }
      ],
      "payable": false,
      "stateMutability": "view",
      "type": "function"
    },
    {
      "constant": true,
      "inputs": [],
      "name": "operator",
      "outputs": [
        {
          "internalType": "address",
          "name": "",
          "type": "address"
        }
      ],
      "payable": false,
      "stateMutability": "view",
      "type": "function"
    },
    {
      "constant": true,
      "inputs": [],
      "name": "protocolFee",
      "outputs": [
        {
          "internalType": "uint256",
          "name": "",
          "type": "uint256"
        }
      ],
      "payable": false,
      "stateMutability": "view",
      "type": "function"
    },
    {
      "constant": true,
      "inputs": [
        {
          "internalType": "uint256",
          "name": "",
          "type": "uint256"
        }
      ],
      "name": "roots",
      "outputs": [
        {
          "internalType": "bytes32",
          "name": "",
          "type": "bytes32"
        }
      ],
      "payable": false,
      "stateMutability": "view",
      "type": "function"
    },
    {
      "constant": true,
      "inputs": [],
      "name": "token",
      "outputs": [
        {
          "internalType": "address",
          "name": "",
          "type": "address"
        }
      ],
      "payable": false,
      "stateMutability": "view",
      "type": "function"
    },
    {
      "constant": false,
      "inputs": [
        {
          "internalType": "address",
          "name": "_newVerifier",
          "type": "address"
        }
      ],
      "name": "updateVerifier",
      "outputs": [],
      "payable": false,
      "stateMutability": "nonpayable",
      "type": "function"
    },
    {
      "constant": true,
      "inputs": [],
      "name": "verifier",
      "outputs": [
        {
          "internalType": "contract IVerifier",
          "name": "",
          "type": "address"
        }
      ],
      "payable": false,
      "stateMutability": "view",
      "type": "function"
    },
    {
      "constant": false,
      "inputs": [
        {
          "internalType": "bytes",
          "name": "_proof",
          "type": "bytes"
        },
        {
          "internalType": "bytes32",
          "name": "_root",
          "type": "bytes32"
        },
        {
          "internalType": "bytes32",
          "name": "_nullifierHash",
          "type": "bytes32"
        },
        {
          "internalType": "address payable",
          "name": "_recipient",
          "type": "address"
        },
        {
          "internalType": "address payable",
          "name": "_relayer",
          "type": "address"
        },
        {
          "internalType": "uint256",
          "name": "_fee",
          "type": "uint256"
        },
        {
          "internalType": "uint256",
          "name": "_refund",
          "type": "uint256"
        }
      ],
      "name": "withdraw",
      "outputs": [],
      "payable": true,
      "stateMutability": "payable",
      "type": "function"
    },
    {
      "constant": true,
      "inputs": [
        {
          "internalType": "uint256",
          "name": "",
          "type": "uint256"
        }
      ],
      "name": "zeros",
      "outputs": [
        {
          "internalType": "bytes32",
          "name": "",
          "type": "bytes32"
        }
      ],
      "payable": false,
      "stateMutability": "view",
      "type": "function"
    }
  ],
  "bytecode": "0x6080604052600380546001600160401b03191690553480156200002157600080fd5b5060405162001e5838038062001e58833981810160405260c08110156200004757600080fd5b508051602082015160408301516060840151608085015160a090950151939492939192909185858585858163ffffffff8116620000b65760405162461bcd60e51b815260040180806020018281038252602781526020018062001dcf6027913960400191505060405180910390fd5b60208163ffffffff1610620000fd5760405162461bcd60e51b815260040180806020018281038252602281526020018062001e166022913960400191505060405180910390fd5b6000805463ffffffff191663ffffffff83161781556002805460018181019092557f2fe54c60d3acabf3343a35b6eba15db4821b340f76e741e2249685ed4899af6c60008051602062001d8e833981519152909101819055815480830183559282905260008051602062001e388339815191529092018290555b60005463ffffffff9081169082161015620001eb57620001a182806001600160e01b03620002ba16565b60028054600181810190925560008051602062001d8e8339815191520182905580548082018255600082905260008051602062001e38833981519152018290559092500162000177565b506200020181806001600160e01b03620002ba16565b60046000015550506068805460ff1916600117905582620002545760405162461bcd60e51b815260040180806020018281038252602581526020018062001d696025913960400191505060405180910390fd5b606c80546001600160a01b03199081166001600160a01b0397881617909155606d8054821695871695909517909455606e8054851691861691909117905550606955606f805490911691831691909117905560c8840460705550620004a7945050505050565b600060008051602062001df6833981519152831062000320576040805162461bcd60e51b815260206004820181905260248201527f5f6c6566742073686f756c6420626520696e7369646520746865206669656c64604482015290519081900360640190fd5b60008051602062001df683398151915282106200036f5760405162461bcd60e51b815260040180806020018281038252602181526020018062001dae6021913960400191505060405180910390fd5b6040805163f47d33b560e01b81526004810185905260006024820181905282518693919273__Hasher________________________________9263f47d33b592604480840193829003018186803b158015620003ca57600080fd5b505af4158015620003df573d6000803e3d6000fd5b505050506040513d6040811015620003f657600080fd5b508051602090910151909250905060008051602062001df6833981519152848308915073__Hasher________________________________63f47d33b583836040518363ffffffff1660e01b81526004018083815260200182815260200192505050604080518083038186803b1580156200047057600080fd5b505af415801562000485573d6000803e3d6000fd5b505050506040513d60408110156200049c57600080fd5b505195945050505050565b6118b280620004b76000396000f3fe6080604052600436106101815760003560e01c80639fa12d0b116100d1578063d0fb02031161008a578063ec73295911610064578063ec732959146105c8578063f178e47c146105dd578063fc0c546a14610607578063fc7e9c6f1461061c57610181565b8063d0fb02031461055f578063e5285dcc14610574578063e82955881461059e57610181565b80639fa12d0b1461040e578063b0e21e8a146104d9578063b214faa5146104ee578063ba70f7571461050b578063c2b40ae414610520578063cd87a3b41461054a57610181565b80634ecf518b1161013e578063839df94511610118578063839df945146103875780638bca6d16146103b157806390eeb02b146103c657806397fc007c146103db57610181565b80634ecf518b1461031a578063570ca735146103485780636d9833e31461035d57610181565b806306394c9b1461018657806317cc915c146101bb57806321a0adb6146101f95780632b7ac3f31461029257806338bf282e146102c3578063414a37ba14610305575b600080fd5b34801561019257600080fd5b506101b9600480360360208110156101a957600080fd5b50356001600160a01b0316610631565b005b3480156101c757600080fd5b506101e5600480360360208110156101de57600080fd5b503561069c565b604080519115158252519081900360200190f35b6101b9600480360360e081101561020f57600080fd5b810190602081018135600160201b81111561022957600080fd5b82018360208201111561023b57600080fd5b803590602001918460018302840111600160201b8311171561025c57600080fd5b91935091508035906020810135906001600160a01b03604082013581169160608101359091169060808101359060a001356106b1565b34801561029e57600080fd5b506102a7610a70565b604080516001600160a01b039092168252519081900360200190f35b3480156102cf57600080fd5b506102f3600480360360408110156102e657600080fd5b5080359060200135610a7f565b60408051918252519081900360200190f35b34801561031157600080fd5b506102f3610c60565b34801561032657600080fd5b5061032f610c72565b6040805163ffffffff9092168252519081900360200190f35b34801561035457600080fd5b506102a7610c7e565b34801561036957600080fd5b506101e56004803603602081101561038057600080fd5b5035610c8d565b34801561039357600080fd5b506101e5600480360360208110156103aa57600080fd5b5035610d00565b3480156103bd57600080fd5b506102f3610d15565b3480156103d257600080fd5b5061032f610d1b565b3480156103e757600080fd5b506101b9600480360360208110156103fe57600080fd5b50356001600160a01b0316610d27565b34801561041a57600080fd5b506104896004803603602081101561043157600080fd5b810190602081018135600160201b81111561044b57600080fd5b82018360208201111561045d57600080fd5b803590602001918460208302840111600160201b8311171561047e57600080fd5b509092509050610d92565b60408051602080825283518183015283519192839290830191858101910280838360005b838110156104c55781810151838201526020016104ad565b505050509050019250505060405180910390f35b3480156104e557600080fd5b506102f3610e1a565b6101b96004803603602081101561050457600080fd5b5035610e20565b34801561051757600080fd5b506102f3610f4d565b34801561052c57600080fd5b506102f36004803603602081101561054357600080fd5b5035610f6d565b34801561055657600080fd5b5061032f610f81565b34801561056b57600080fd5b506102a7610f86565b34801561058057600080fd5b506101e56004803603602081101561059757600080fd5b5035610f95565b3480156105aa57600080fd5b506102f3600480360360208110156105c157600080fd5b5035610faa565b3480156105d457600080fd5b506102f3610fc8565b3480156105e957600080fd5b506102f36004803603602081101561060057600080fd5b5035610fec565b34801561061357600080fd5b506102a7610ff9565b34801561062857600080fd5b5061032f611008565b606e546001600160a01b0316331461067a5760405162461bcd60e51b81526004018080602001828103825260258152602001806118596025913960400191505060405180910390fd5b606e80546001600160a01b0319166001600160a01b0392909216919091179055565b606a6020526000908152604090205460ff1681565b60685460ff16610708576040805162461bcd60e51b815260206004820152601f60248201527f5265656e7472616e637947756172643a207265656e7472616e742063616c6c00604482015290519081900360640190fd5b6068805460ff19169055606954821115610769576040805162461bcd60e51b815260206004820152601a60248201527f4665652065786365656473207472616e736665722076616c7565000000000000604482015290519081900360640190fd5b6000858152606a602052604090205460ff16156107cd576040805162461bcd60e51b815260206004820152601f60248201527f546865206e6f746520686173206265656e20616c7265616479207370656e7400604482015290519081900360640190fd5b6107d686610c8d565b610827576040805162461bcd60e51b815260206004820152601c60248201527f43616e6e6f742066696e6420796f7572206d65726b6c6520726f6f7400000000604482015290519081900360640190fd5b606c546040805160c08082018352898252602082018990526001600160a01b038881168385015287811660608401526080830187905260a08301869052925163695ef6f960e01b8152929093169263695ef6f9928c928c9290916004810191829160240190849080838360005b838110156108ac578181015183820152602001610894565b505050509050018281038252858582818152602001925080828437600081840152601f19601f820116905080830192505050945050505050602060405180830381600087803b1580156108fe57600080fd5b505af1158015610912573d6000803e3d6000fd5b505050506040513d602081101561092857600080fd5b5051610974576040805162461bcd60e51b815260206004820152601660248201527524b73b30b634b2103bb4ba34323930bb90383937b7b360511b604482015290519081900360640190fd5b6000858152606a6020908152604091829020805460ff19166001179055606d548251622fcfcb60e31b81529251610a0b9388938893889388936001600160a01b039092169263017e7e589260048082019391829003018186803b1580156109da57600080fd5b505afa1580156109ee573d6000803e3d6000fd5b505050506040513d6020811015610a0457600080fd5b505161101b565b604080516001600160a01b038681168252602082018890528183018590529151918516917fe9e508bad6d4c3227e881ca19068f099da81b5164dd6d62b2eaf1e8bc6c349319181900360600190a250506068805460ff19166001179055505050505050565b606c546001600160a01b031681565b60006000805160206117e88339815191528310610ae3576040805162461bcd60e51b815260206004820181905260248201527f5f6c6566742073686f756c6420626520696e7369646520746865206669656c64604482015290519081900360640190fd5b6000805160206117e88339815191528210610b2f5760405162461bcd60e51b81526004018080602001828103825260218152602001806117986021913960400191505060405180910390fd5b6040805163f47d33b560e01b81526004810185905260006024820181905282518693919273__Hasher________________________________9263f47d33b592604480840193829003018186803b158015610b8957600080fd5b505af4158015610b9d573d6000803e3d6000fd5b505050506040513d6040811015610bb357600080fd5b50805160209091015190925090506000805160206117e8833981519152848308915073__Hasher________________________________63f47d33b583836040518363ffffffff1660e01b81526004018083815260200182815260200192505050604080518083038186803b158015610c2b57600080fd5b505af4158015610c3f573d6000803e3d6000fd5b505050506040513d6040811015610c5557600080fd5b505195945050505050565b6000805160206117e883398151915281565b60005463ffffffff1681565b606e546001600160a01b031681565b600081610c9c57506000610cfb565b60035463ffffffff165b60048163ffffffff1660648110610cb957fe5b0154831415610ccc576001915050610cfb565b63ffffffff8116610cdb575060645b6003546000199091019063ffffffff80831691161415610ca65760009150505b919050565b606b6020526000908152604090205460ff1681565b60695481565b60035463ffffffff1681565b606e546001600160a01b03163314610d705760405162461bcd60e51b81526004018080602001828103825260258152602001806118596025913960400191505060405180910390fd5b606c80546001600160a01b0319166001600160a01b0392909216919091179055565b604080518281526020808402820101909152606090828015610dbe578160200160208202803883390190505b50905060005b82811015610e1357610de7848483818110610ddb57fe5b90506020020135610f95565b15610e0b576001828281518110610dfa57fe5b911515602092830291909101909101525b600101610dc4565b5092915050565b60705481565b60685460ff16610e77576040805162461bcd60e51b815260206004820152601f60248201527f5265656e7472616e637947756172643a207265656e7472616e742063616c6c00604482015290519081900360640190fd5b6068805460ff191690556000818152606b602052604090205460ff1615610ecf5760405162461bcd60e51b81526004018080602001828103825260218152602001806118086021913960400191505060405180910390fd5b6000610eda8261114d565b6000838152606b60205260409020805460ff191660011790559050610efd6112e4565b6040805163ffffffff83168152426020820152815184927fa945e51eec50ab98c161376f0db4cf2aeba3ec92755fe2fcd388bdbbb80ff196928290030190a250506068805460ff19166001179055565b60035460009060049063ffffffff1660648110610f6657fe5b0154905090565b60048160648110610f7a57fe5b0154905081565b606481565b606d546001600160a01b031681565b6000908152606a602052604090205460ff1690565b60028181548110610fb757fe5b600091825260209091200154905081565b7f2fe54c60d3acabf3343a35b6eba15db4821b340f76e741e2249685ed4899af6c81565b60018181548110610fb757fe5b606f546001600160a01b031681565b600354600160201b900463ffffffff1681565b8134146110595760405162461bcd60e51b81526004018080602001828103825260308152602001806117416030913960400191505060405180910390fd5b6001600160a01b0381161580159061108e5761107d86607054866069540303611330565b61108982607054611330565b61109c565b61109c868560695403611330565b83156110ac576110ac8585611330565b8215611145576040516000906001600160a01b0388169085908381818185875af1925050503d80600081146110fd576040519150601f19603f3d011682016040523d82523d6000602084013e611102565b606091505b5050905080611143576040516001600160a01b0387169085156108fc029086906000818181858888f19350505050158015611141573d6000803e3d6000fd5b505b505b505050505050565b60035460008054909163ffffffff600160201b909104811691811660020a168114156111aa5760405162461bcd60e51b815260040180806020018281038252602f8152602001806116e8602f913960400191505060405180910390fd5b6003805463ffffffff600160201b80830482166001019091160267ffffffff000000001990911617905582600080805b60005463ffffffff9081169082161015611282576001851661123e5783925060028163ffffffff168154811061120c57fe5b906000526020600020015491508360018263ffffffff168154811061122d57fe5b600091825260209091200155611262565b60018163ffffffff168154811061125157fe5b906000526020600020015492508391505b61126c8383610a7f565b9350600263ffffffff86160494506001016111da565b5060035460649063ffffffff908116600101166003805463ffffffff19169290910663ffffffff9081169290921790819055849160049116606481106112c457fe5b01555050600354600160201b900463ffffffff1660001901949350505050565b34156113215760405162461bcd60e51b81526004018080602001828103825260308152602001806118296030913960400191505060405180910390fd5b61132e3330606954611501565b565b606f54604080516001600160a01b038581166024830152604480830186905283518084039091018152606490920183526020820180516001600160e01b031663a9059cbb60e01b178152925182516000956060959316939282918083835b602083106113ad5780518252601f19909201916020918201910161138e565b6001836020036101000a0380198251168184511680821785525050505050509050019150506000604051808303816000865af19150503d806000811461140f576040519150601f19603f3d011682016040523d82523d6000602084013e611414565b606091505b50915091508161145f576040805162461bcd60e51b81526020600482015260116024820152706e6f7420656e6f75676820746f6b656e7360781b604482015290519081900360640190fd5b8051156114fb5780516020146114a65760405162461bcd60e51b815260040180806020018281038252602a815260200180611717602a913960400191505060405180910390fd5b8080602001905160208110156114bb57600080fd5b50519150816114fb5760405162461bcd60e51b81526004018080602001828103825260278152602001806117716027913960400191505060405180910390fd5b50505050565b606f54604080516001600160a01b0386811660248301528581166044830152606480830186905283518084039091018152608490920183526020820180516001600160e01b03166323b872dd60e01b178152925182516000956060959316939282918083835b602083106115865780518252601f199092019160209182019101611567565b6001836020036101000a0380198251168184511680821785525050505050509050019150506000604051808303816000865af19150503d80600081146115e8576040519150601f19603f3d011682016040523d82523d6000602084013e6115ed565b606091505b509150915081611644576040805162461bcd60e51b815260206004820152601960248201527f6e6f7420656e6f75676820616c6c6f77656420746f6b656e7300000000000000604482015290519081900360640190fd5b8051156116e057805160201461168b5760405162461bcd60e51b815260040180806020018281038252602a815260200180611717602a913960400191505060405180910390fd5b8080602001905160208110156116a057600080fd5b50519150816116e05760405162461bcd60e51b815260040180806020018281038252602f8152602001806117b9602f913960400191505060405180910390fd5b505050505056fe4d65726b6c6520747265652069732066756c6c2e204e6f206d6f7265206c656166732063616e20626520616464656464617461206c656e6774682073686f756c64206265206569746865722030206f72203332206279746573496e636f727265637420726566756e6420616d6f756e742072656365697665642062792074686520636f6e74726163746e6f7420656e6f75676820746f6b656e732e20546f6b656e2072657475726e732066616c73652e5f72696768742073686f756c6420626520696e7369646520746865206669656c646e6f7420656e6f75676820616c6c6f77656420746f6b656e732e20546f6b656e2072657475726e732066616c73652e30644e72e131a029b85045b68181585d2833e84879b9709143e1f593f000000154686520636f6d6d69746d656e7420686173206265656e207375626d69747465644554482076616c756520697320737570706f73656420746f206265203020666f7220455243323020696e7374616e63654f6e6c79206f70657261746f722063616e2063616c6c20746869732066756e6374696f6e2ea265627a7a72315820c90af910ddfda5b33dab20c369a888b349922f695f9eee0e2eb3e0273adc895364736f6c6343000511003264656e6f6d696e6174696f6e2073686f756c642062652067726561746572207468616e2030405787fa12a823e0f2b7631cc41b3ba8828b3321ca811111fa75cd3aa3bb5ace5f72696768742073686f756c6420626520696e7369646520746865206669656c645f747265654c6576656c732073686f756c642062652067726561746572207468616e207a65726f30644e72e131a029b85045b68181585d2833e84879b9709143e1f593f00000015f747265654c6576656c732073686f756c64206265206c657373207468616e203332b10e2d527612073b26eecdfd717e6a320cf44b4afac2b0732d9fcbe2b7fa0cf6",
  "source": "// https://tornado.cash\n/*\n* d888888P                                           dP              a88888b.                   dP\n*    88                                              88             d8'   `88                   88\n*    88    .d8888b. 88d888b. 88d888b. .d8888b. .d888b88 .d8888b.    88        .d8888b. .d8888b. 88d888b.\n*    88    88'  `88 88'  `88 88'  `88 88'  `88 88'  `88 88'  `88    88        88'  `88 Y8ooooo. 88'  `88\n*    88    88.  .88 88       88    88 88.  .88 88.  .88 88.  .88 dP Y8.   .88 88.  .88       88 88    88\n*    dP    `88888P' dP       dP    dP `88888P8 `88888P8 `88888P' 88  Y88888P' `88888P8 `88888P' dP    dP\n* ooooooooooooooooooooooooooooooooooooooooooooooooooooooooooooooooooooooooooooooooooooooooooooooooooooooo\n*/\n\npragma solidity 0.5.17;\n\nimport \"./Tornado.sol\";\n\ncontract ERC20Tornado is Tornado {\n  address public token;\n  uint256 public protocolFee;\n\n  constructor(\n    IVerifier _verifier,\n    IFeeManager _feeManager,\n    uint256 _denomination,\n    uint32 _merkleTreeHeight,\n    address _operator,\n    address _token\n  ) Tornado(_verifier, _feeManager, _denomination, _merkleTreeHeight, _operator) public {\n    token = _token;\n    // 0.5% fee\n    protocolFee = _denomination / 200;\n  }\n\n  function _processDeposit() internal {\n    require(msg.value == 0, \"ETH value is supposed to be 0 for ERC20 instance\");\n    _safeErc20TransferFrom(msg.sender, address(this), denomination);\n  }\n\n  function _processWithdraw(address payable _recipient, address payable _relayer, uint256 _relayer_fee, uint256 _refund, address _feeTo) internal {\n    require(msg.value == _refund, \"Incorrect refund amount received by the contract\");\n\n    bool feeOn = _feeTo != address(0);\n    if (feeOn) {\n      _safeErc20Transfer(_recipient, denomination - _relayer_fee - protocolFee);\n      _safeErc20Transfer(_feeTo, protocolFee);\n    } else {\n      _safeErc20Transfer(_recipient, denomination - _relayer_fee);\n    }\n\n    if (_relayer_fee > 0) {\n      _safeErc20Transfer(_relayer, _relayer_fee);\n    }\n\n    if (_refund > 0) {\n      (bool success, ) = _recipient.call.value(_refund)(\"\");\n      if (!success) {\n        // let's return _refund back to the relayer\n        _relayer.transfer(_refund);\n      }\n    }\n  }\n\n  function _safeErc20TransferFrom(address _from, address _to, uint256 _amount) internal {\n    (bool success, bytes memory data) = token.call(abi.encodeWithSelector(0x23b872dd /* transferFrom */, _from, _to, _amount));\n    require(success, \"not enough allowed tokens\");\n\n    // if contract returns some data lets make sure that is `true` according to standard\n    if (data.length > 0) {\n      require(data.length == 32, \"data length should be either 0 or 32 bytes\");\n      success = abi.decode(data, (bool));\n      require(success, \"not enough allowed tokens. Token returns false.\");\n    }\n  }\n\n  function _safeErc20Transfer(address _to, uint256 _amount) internal {\n    (bool success, bytes memory data) = token.call(abi.encodeWithSelector(0xa9059cbb /* transfer */, _to, _amount));\n    require(success, \"not enough tokens\");\n\n    // if contract returns some data lets make sure that is `true` according to standard\n    if (data.length > 0) {\n      require(data.length == 32, \"data length should be either 0 or 32 bytes\");\n      success = abi.decode(data, (bool));\n      require(success, \"not enough tokens. Token returns false.\");\n    }\n  }\n}\n",
  "sourcePath": "/Users/brianli/dotfiles/tornado-core/contracts/ERC20Tornado.sol",
  "compiler": {
    "name": "solc",
    "version": "0.5.17+commit.d19bba13.Emscripten.clang"
  },
  "schemaVersion": "3.3.4",
  "updatedAt": "2021-04-04T05:03:09.368Z",
  "networkType": "ethereum",
  "devdoc": {
    "methods": {
      "changeOperator(address)": {
        "details": "operator can change his address "
      },
      "deposit(bytes32)": {
        "details": "Deposit funds into the contract. The caller must send (for ETH) or approve (for ERC20) value equal to or `denomination` of this instance.",
        "params": {
          "_commitment": "the note commitment, which is PedersenHash(nullifier + secret)"
        }
      },
      "getLastRoot()": {
        "details": "Returns the last root"
      },
      "hashLeftRight(bytes32,bytes32)": {
        "details": "Hash 2 tree leaves, returns MiMC(_left, _right)"
      },
      "isKnownRoot(bytes32)": {
        "details": "Whether the root is present in the root history"
      },
      "isSpent(bytes32)": {
        "details": "whether a note is already spent "
      },
      "isSpentArray(bytes32[])": {
        "details": "whether an array of notes is already spent "
      },
      "updateVerifier(address)": {
        "details": "allow operator to update SNARK verification keys. This is needed to update keys after the final trusted setup ceremony is held. After that operator rights are supposed to be transferred to zero address"
      },
      "withdraw(bytes,bytes32,bytes32,address,address,uint256,uint256)": {
        "details": "Withdraw a deposit from the contract. `proof` is a zkSNARK proof data, and input is an array of circuit public inputs `input` array consists of: - merkle root of all deposits in the contract - hash of unique deposit nullifier to prevent double spends - the recipient of funds - optional fee that goes to the transaction sender (usually a relay)"
      }
    }
  },
  "userdoc": {
    "methods": {}
  }
}