{
  "contractName": "ERC20Tornado",
  "abi": [
    {
      "inputs": [
        {
          "internalType": "contract IVerifier",
          "name": "_verifier",
          "type": "address"
        },
        {
          "internalType": "contract IFeeManager",
          "name": "_feeManager",
          "type": "address"
        },
        {
          "internalType": "uint256",
          "name": "_denomination",
          "type": "uint256"
        },
        {
          "internalType": "uint32",
          "name": "_merkleTreeHeight",
          "type": "uint32"
        },
        {
          "internalType": "address",
          "name": "_operator",
          "type": "address"
        },
        {
          "internalType": "address",
          "name": "_token",
          "type": "address"
        }
      ],
      "payable": false,
      "stateMutability": "nonpayable",
      "type": "constructor"
    },
    {
      "anonymous": false,
      "inputs": [
        {
          "indexed": true,
          "internalType": "bytes32",
          "name": "commitment",
          "type": "bytes32"
        },
        {
          "indexed": false,
          "internalType": "uint32",
          "name": "leafIndex",
          "type": "uint32"
        },
        {
          "indexed": false,
          "internalType": "uint256",
          "name": "timestamp",
          "type": "uint256"
        }
      ],
      "name": "Deposit",
      "type": "event"
    },
    {
      "anonymous": false,
      "inputs": [
        {
          "indexed": false,
          "internalType": "address",
          "name": "to",
          "type": "address"
        },
        {
          "indexed": false,
          "internalType": "bytes32",
          "name": "nullifierHash",
          "type": "bytes32"
        },
        {
          "indexed": true,
          "internalType": "address",
          "name": "relayer",
          "type": "address"
        },
        {
          "indexed": false,
          "internalType": "uint256",
          "name": "fee",
          "type": "uint256"
        }
      ],
      "name": "Withdrawal",
      "type": "event"
    },
    {
      "constant": true,
      "inputs": [],
      "name": "FIELD_SIZE",
      "outputs": [
        {
          "internalType": "uint256",
          "name": "",
          "type": "uint256"
        }
      ],
      "payable": false,
      "stateMutability": "view",
      "type": "function"
    },
    {
      "constant": true,
      "inputs": [],
      "name": "ROOT_HISTORY_SIZE",
      "outputs": [
        {
          "internalType": "uint32",
          "name": "",
          "type": "uint32"
        }
      ],
      "payable": false,
      "stateMutability": "view",
      "type": "function"
    },
    {
      "constant": true,
      "inputs": [],
      "name": "ZERO_VALUE",
      "outputs": [
        {
          "internalType": "uint256",
          "name": "",
          "type": "uint256"
        }
      ],
      "payable": false,
      "stateMutability": "view",
      "type": "function"
    },
    {
      "constant": false,
      "inputs": [
        {
          "internalType": "address",
          "name": "_newOperator",
          "type": "address"
        }
      ],
      "name": "changeOperator",
      "outputs": [],
      "payable": false,
      "stateMutability": "nonpayable",
      "type": "function"
    },
    {
      "constant": true,
      "inputs": [
        {
          "internalType": "bytes32",
          "name": "",
          "type": "bytes32"
        }
      ],
      "name": "commitments",
      "outputs": [
        {
          "internalType": "bool",
          "name": "",
          "type": "bool"
        }
      ],
      "payable": false,
      "stateMutability": "view",
      "type": "function"
    },
    {
      "constant": true,
      "inputs": [],
      "name": "currentRootIndex",
      "outputs": [
        {
          "internalType": "uint32",
          "name": "",
          "type": "uint32"
        }
      ],
      "payable": false,
      "stateMutability": "view",
      "type": "function"
    },
    {
      "constant": true,
      "inputs": [],
      "name": "denomination",
      "outputs": [
        {
          "internalType": "uint256",
          "name": "",
          "type": "uint256"
        }
      ],
      "payable": false,
      "stateMutability": "view",
      "type": "function"
    },
    {
      "constant": false,
      "inputs": [
        {
          "internalType": "bytes32",
          "name": "_commitment",
          "type": "bytes32"
        }
      ],
      "name": "deposit",
      "outputs": [],
      "payable": true,
      "stateMutability": "payable",
      "type": "function"
    },
    {
      "constant": true,
      "inputs": [],
      "name": "feeManager",
      "outputs": [
        {
          "internalType": "contract IFeeManager",
          "name": "",
          "type": "address"
        }
      ],
      "payable": false,
      "stateMutability": "view",
      "type": "function"
    },
    {
      "constant": true,
      "inputs": [
        {
          "internalType": "uint256",
          "name": "",
          "type": "uint256"
        }
      ],
      "name": "filledSubtrees",
      "outputs": [
        {
          "internalType": "bytes32",
          "name": "",
          "type": "bytes32"
        }
      ],
      "payable": false,
      "stateMutability": "view",
      "type": "function"
    },
    {
      "constant": true,
      "inputs": [],
      "name": "getLastRoot",
      "outputs": [
        {
          "internalType": "bytes32",
          "name": "",
          "type": "bytes32"
        }
      ],
      "payable": false,
      "stateMutability": "view",
      "type": "function"
    },
    {
      "constant": true,
      "inputs": [
        {
          "internalType": "bytes32",
          "name": "_left",
          "type": "bytes32"
        },
        {
          "internalType": "bytes32",
          "name": "_right",
          "type": "bytes32"
        }
      ],
      "name": "hashLeftRight",
      "outputs": [
        {
          "internalType": "bytes32",
          "name": "",
          "type": "bytes32"
        }
      ],
      "payable": false,
      "stateMutability": "pure",
      "type": "function"
    },
    {
      "constant": true,
      "inputs": [
        {
          "internalType": "bytes32",
          "name": "_root",
          "type": "bytes32"
        }
      ],
      "name": "isKnownRoot",
      "outputs": [
        {
          "internalType": "bool",
          "name": "",
          "type": "bool"
        }
      ],
      "payable": false,
      "stateMutability": "view",
      "type": "function"
    },
    {
      "constant": true,
      "inputs": [
        {
          "internalType": "bytes32",
          "name": "_nullifierHash",
          "type": "bytes32"
        }
      ],
      "name": "isSpent",
      "outputs": [
        {
          "internalType": "bool",
          "name": "",
          "type": "bool"
        }
      ],
      "payable": false,
      "stateMutability": "view",
      "type": "function"
    },
    {
      "constant": true,
      "inputs": [
        {
          "internalType": "bytes32[]",
          "name": "_nullifierHashes",
          "type": "bytes32[]"
        }
      ],
      "name": "isSpentArray",
      "outputs": [
        {
          "internalType": "bool[]",
          "name": "spent",
          "type": "bool[]"
        }
      ],
      "payable": false,
      "stateMutability": "view",
      "type": "function"
    },
    {
      "constant": true,
      "inputs": [],
      "name": "levels",
      "outputs": [
        {
          "internalType": "uint32",
          "name": "",
          "type": "uint32"
        }
      ],
      "payable": false,
      "stateMutability": "view",
      "type": "function"
    },
    {
      "constant": true,
      "inputs": [],
      "name": "nextIndex",
      "outputs": [
        {
          "internalType": "uint32",
          "name": "",
          "type": "uint32"
        }
      ],
      "payable": false,
      "stateMutability": "view",
      "type": "function"
    },
    {
      "constant": true,
      "inputs": [
        {
          "internalType": "bytes32",
          "name": "",
          "type": "bytes32"
        }
      ],
      "name": "nullifierHashes",
      "outputs": [
        {
          "internalType": "bool",
          "name": "",
          "type": "bool"
        }
      ],
      "payable": false,
      "stateMutability": "view",
      "type": "function"
    },
    {
      "constant": true,
      "inputs": [],
      "name": "operator",
      "outputs": [
        {
          "internalType": "address",
          "name": "",
          "type": "address"
        }
      ],
      "payable": false,
      "stateMutability": "view",
      "type": "function"
    },
    {
      "constant": true,
      "inputs": [
        {
          "internalType": "uint256",
          "name": "",
          "type": "uint256"
        }
      ],
      "name": "roots",
      "outputs": [
        {
          "internalType": "bytes32",
          "name": "",
          "type": "bytes32"
        }
      ],
      "payable": false,
      "stateMutability": "view",
      "type": "function"
    },
    {
      "constant": true,
      "inputs": [],
      "name": "token",
      "outputs": [
        {
          "internalType": "address",
          "name": "",
          "type": "address"
        }
      ],
      "payable": false,
      "stateMutability": "view",
      "type": "function"
    },
    {
      "constant": false,
      "inputs": [
        {
          "internalType": "address",
          "name": "_newVerifier",
          "type": "address"
        }
      ],
      "name": "updateVerifier",
      "outputs": [],
      "payable": false,
      "stateMutability": "nonpayable",
      "type": "function"
    },
    {
      "constant": true,
      "inputs": [],
      "name": "verifier",
      "outputs": [
        {
          "internalType": "contract IVerifier",
          "name": "",
          "type": "address"
        }
      ],
      "payable": false,
      "stateMutability": "view",
      "type": "function"
    },
    {
      "constant": false,
      "inputs": [
        {
          "internalType": "bytes",
          "name": "_proof",
          "type": "bytes"
        },
        {
          "internalType": "bytes32",
          "name": "_root",
          "type": "bytes32"
        },
        {
          "internalType": "bytes32",
          "name": "_nullifierHash",
          "type": "bytes32"
        },
        {
          "internalType": "address payable",
          "name": "_recipient",
          "type": "address"
        },
        {
          "internalType": "address payable",
          "name": "_relayer",
          "type": "address"
        },
        {
          "internalType": "uint256",
          "name": "_fee",
          "type": "uint256"
        },
        {
          "internalType": "uint256",
          "name": "_refund",
          "type": "uint256"
        }
      ],
      "name": "withdraw",
      "outputs": [],
      "payable": true,
      "stateMutability": "payable",
      "type": "function"
    },
    {
      "constant": true,
      "inputs": [
        {
          "internalType": "uint256",
          "name": "",
          "type": "uint256"
        }
      ],
      "name": "zeros",
      "outputs": [
        {
          "internalType": "bytes32",
          "name": "",
          "type": "bytes32"
        }
      ],
      "payable": false,
      "stateMutability": "view",
      "type": "function"
    }
  ],
  "bytecode": "0x6080604052600380546001600160401b03191690553480156200002157600080fd5b5060405162001f9a38038062001f9a833981810160405260c08110156200004757600080fd5b508051602082015160408301516060840151608085015160a090950151939492939192909185858585858163ffffffff8116620000b65760405162461bcd60e51b815260040180806020018281038252602781526020018062001f116027913960400191505060405180910390fd5b60208163ffffffff1610620000fd5760405162461bcd60e51b815260040180806020018281038252602281526020018062001f586022913960400191505060405180910390fd5b6000805463ffffffff191663ffffffff83161781556002805460018181019092557f2fe54c60d3acabf3343a35b6eba15db4821b340f76e741e2249685ed4899af6c60008051602062001ed0833981519152909101819055815480830183559282905260008051602062001f7a8339815191529092018290555b60005463ffffffff9081169082161015620001eb57620001a182806001600160e01b03620002b316565b60028054600181810190925560008051602062001ed08339815191520182905580548082018255600082905260008051602062001f7a833981519152018290559092500162000177565b506200020181806001600160e01b03620002b316565b60046000015550506068805460ff1916600117905582620002545760405162461bcd60e51b815260040180806020018281038252602581526020018062001eab6025913960400191505060405180910390fd5b606c80546001600160a01b03199081166001600160a01b0397881617909155606d8054821695871695909517909455606e8054851691861691909117905550606955606f80549091169290911691909117905550620004a09350505050565b600060008051602062001f38833981519152831062000319576040805162461bcd60e51b815260206004820181905260248201527f5f6c6566742073686f756c6420626520696e7369646520746865206669656c64604482015290519081900360640190fd5b60008051602062001f388339815191528210620003685760405162461bcd60e51b815260040180806020018281038252602181526020018062001ef06021913960400191505060405180910390fd5b6040805163f47d33b560e01b81526004810185905260006024820181905282518693919273__Hasher________________________________9263f47d33b592604480840193829003018186803b158015620003c357600080fd5b505af4158015620003d8573d6000803e3d6000fd5b505050506040513d6040811015620003ef57600080fd5b508051602090910151909250905060008051602062001f38833981519152848308915073__Hasher________________________________63f47d33b583836040518363ffffffff1660e01b81526004018083815260200182815260200192505050604080518083038186803b1580156200046957600080fd5b505af41580156200047e573d6000803e3d6000fd5b505050506040513d60408110156200049557600080fd5b505195945050505050565b6119fb80620004b06000396000f3fe6080604052600436106101665760003560e01c806397fc007c116100d1578063d0fb02031161008a578063ec73295911610064578063ec73295914610598578063f178e47c146105ad578063fc0c546a146105d7578063fc7e9c6f146105ec57610166565b8063d0fb02031461052f578063e5285dcc14610544578063e82955881461056e57610166565b806397fc007c146103c05780639fa12d0b146103f3578063b214faa5146104be578063ba70f757146104db578063c2b40ae4146104f0578063cd87a3b41461051a57610166565b80634ecf518b116101235780634ecf518b146102ff578063570ca7351461032d5780636d9833e314610342578063839df9451461036c5780638bca6d161461039657806390eeb02b146103ab57610166565b806306394c9b1461016b57806317cc915c146101a057806321a0adb6146101de5780632b7ac3f31461027757806338bf282e146102a8578063414a37ba146102ea575b600080fd5b34801561017757600080fd5b5061019e6004803603602081101561018e57600080fd5b50356001600160a01b0316610601565b005b3480156101ac57600080fd5b506101ca600480360360208110156101c357600080fd5b503561066c565b604080519115158252519081900360200190f35b61019e600480360360e08110156101f457600080fd5b810190602081018135600160201b81111561020e57600080fd5b82018360208201111561022057600080fd5b803590602001918460018302840111600160201b8311171561024157600080fd5b91935091508035906020810135906001600160a01b03604082013581169160608101359091169060808101359060a00135610681565b34801561028357600080fd5b5061028c6109ce565b604080516001600160a01b039092168252519081900360200190f35b3480156102b457600080fd5b506102d8600480360360408110156102cb57600080fd5b50803590602001356109dd565b60408051918252519081900360200190f35b3480156102f657600080fd5b506102d8610bbe565b34801561030b57600080fd5b50610314610bd0565b6040805163ffffffff9092168252519081900360200190f35b34801561033957600080fd5b5061028c610bdc565b34801561034e57600080fd5b506101ca6004803603602081101561036557600080fd5b5035610beb565b34801561037857600080fd5b506101ca6004803603602081101561038f57600080fd5b5035610c5e565b3480156103a257600080fd5b506102d8610c73565b3480156103b757600080fd5b50610314610c79565b3480156103cc57600080fd5b5061019e600480360360208110156103e357600080fd5b50356001600160a01b0316610c85565b3480156103ff57600080fd5b5061046e6004803603602081101561041657600080fd5b810190602081018135600160201b81111561043057600080fd5b82018360208201111561044257600080fd5b803590602001918460208302840111600160201b8311171561046357600080fd5b509092509050610cf0565b60408051602080825283518183015283519192839290830191858101910280838360005b838110156104aa578181015183820152602001610492565b505050509050019250505060405180910390f35b61019e600480360360208110156104d457600080fd5b5035610d78565b3480156104e757600080fd5b506102d8610ea5565b3480156104fc57600080fd5b506102d86004803603602081101561051357600080fd5b5035610ec5565b34801561052657600080fd5b50610314610ed9565b34801561053b57600080fd5b5061028c610ede565b34801561055057600080fd5b506101ca6004803603602081101561056757600080fd5b5035610eed565b34801561057a57600080fd5b506102d86004803603602081101561059157600080fd5b5035610f02565b3480156105a457600080fd5b506102d8610f20565b3480156105b957600080fd5b506102d8600480360360208110156105d057600080fd5b5035610f44565b3480156105e357600080fd5b5061028c610f51565b3480156105f857600080fd5b50610314610f60565b606e546001600160a01b0316331461064a5760405162461bcd60e51b81526004018080602001828103825260258152602001806119a26025913960400191505060405180910390fd5b606e80546001600160a01b0319166001600160a01b0392909216919091179055565b606a6020526000908152604090205460ff1681565b60685460ff166106d8576040805162461bcd60e51b815260206004820152601f60248201527f5265656e7472616e637947756172643a207265656e7472616e742063616c6c00604482015290519081900360640190fd5b6068805460ff19169055606954821115610739576040805162461bcd60e51b815260206004820152601a60248201527f4665652065786365656473207472616e736665722076616c7565000000000000604482015290519081900360640190fd5b6000858152606a602052604090205460ff161561079d576040805162461bcd60e51b815260206004820152601f60248201527f546865206e6f746520686173206265656e20616c7265616479207370656e7400604482015290519081900360640190fd5b6107a686610beb565b6107f7576040805162461bcd60e51b815260206004820152601c60248201527f43616e6e6f742066696e6420796f7572206d65726b6c6520726f6f7400000000604482015290519081900360640190fd5b606c546040805160c08082018352898252602082018990526001600160a01b038881168385015287811660608401526080830187905260a08301869052925163695ef6f960e01b8152929093169263695ef6f9928c928c9290916004810191829160240190849080838360005b8381101561087c578181015183820152602001610864565b505050509050018281038252858582818152602001925080828437600081840152601f19601f820116905080830192505050945050505050602060405180830381600087803b1580156108ce57600080fd5b505af11580156108e2573d6000803e3d6000fd5b505050506040513d60208110156108f857600080fd5b5051610944576040805162461bcd60e51b815260206004820152601660248201527524b73b30b634b2103bb4ba34323930bb90383937b7b360511b604482015290519081900360640190fd5b6000858152606a60205260409020805460ff1916600117905561096984848484610f73565b604080516001600160a01b038681168252602082018890528183018590529151918516917fe9e508bad6d4c3227e881ca19068f099da81b5164dd6d62b2eaf1e8bc6c349319181900360600190a250506068805460ff19166001179055505050505050565b606c546001600160a01b031681565b60006000805160206119318339815191528310610a41576040805162461bcd60e51b815260206004820181905260248201527f5f6c6566742073686f756c6420626520696e7369646520746865206669656c64604482015290519081900360640190fd5b6000805160206119318339815191528210610a8d5760405162461bcd60e51b81526004018080602001828103825260218152602001806118e16021913960400191505060405180910390fd5b6040805163f47d33b560e01b81526004810185905260006024820181905282518693919273__Hasher________________________________9263f47d33b592604480840193829003018186803b158015610ae757600080fd5b505af4158015610afb573d6000803e3d6000fd5b505050506040513d6040811015610b1157600080fd5b5080516020909101519092509050600080516020611931833981519152848308915073__Hasher________________________________63f47d33b583836040518363ffffffff1660e01b81526004018083815260200182815260200192505050604080518083038186803b158015610b8957600080fd5b505af4158015610b9d573d6000803e3d6000fd5b505050506040513d6040811015610bb357600080fd5b505195945050505050565b60008051602061193183398151915281565b60005463ffffffff1681565b606e546001600160a01b031681565b600081610bfa57506000610c59565b60035463ffffffff165b60048163ffffffff1660648110610c1757fe5b0154831415610c2a576001915050610c59565b63ffffffff8116610c39575060645b6003546000199091019063ffffffff80831691161415610c045760009150505b919050565b606b6020526000908152604090205460ff1681565b60695481565b60035463ffffffff1681565b606e546001600160a01b03163314610cce5760405162461bcd60e51b81526004018080602001828103825260258152602001806119a26025913960400191505060405180910390fd5b606c80546001600160a01b0319166001600160a01b0392909216919091179055565b604080518281526020808402820101909152606090828015610d1c578160200160208202803883390190505b50905060005b82811015610d7157610d45848483818110610d3957fe5b90506020020135610eed565b15610d69576001828281518110610d5857fe5b911515602092830291909101909101525b600101610d22565b5092915050565b60685460ff16610dcf576040805162461bcd60e51b815260206004820152601f60248201527f5265656e7472616e637947756172643a207265656e7472616e742063616c6c00604482015290519081900360640190fd5b6068805460ff191690556000818152606b602052604090205460ff1615610e275760405162461bcd60e51b81526004018080602001828103825260218152602001806119516021913960400191505060405180910390fd5b6000610e32826111ab565b6000838152606b60205260409020805460ff191660011790559050610e55611342565b6040805163ffffffff83168152426020820152815184927fa945e51eec50ab98c161376f0db4cf2aeba3ec92755fe2fcd388bdbbb80ff196928290030190a250506068805460ff19166001179055565b60035460009060049063ffffffff1660648110610ebe57fe5b0154905090565b60048160648110610ed257fe5b0154905081565b606481565b606d546001600160a01b031681565b6000908152606a602052604090205460ff1690565b60028181548110610f0f57fe5b600091825260209091200154905081565b7f2fe54c60d3acabf3343a35b6eba15db4821b340f76e741e2249685ed4899af6c81565b60018181548110610f0f57fe5b606f546001600160a01b031681565b600354600160201b900463ffffffff1681565b803414610fb15760405162461bcd60e51b815260040180806020018281038252603081526020018061188a6030913960400191505060405180910390fd5b606d5460408051622fcfcb60e31b815290516000926001600160a01b03169163017e7e58916004808301926020929190829003018186803b158015610ff557600080fd5b505afa158015611009573d6000803e3d6000fd5b505050506040513d602081101561101f57600080fd5b5051606d5460408051633b46a6e760e01b815290519293506000926001600160a01b0390921691633b46a6e791600480820192602092909190829003018186803b15801561106c57600080fd5b505afa158015611080573d6000803e3d6000fd5b505050506040513d602081101561109657600080fd5b5051905060006001600160a01b038316158015906110b357508115155b905080156110eb5760006110c96069548461138e565b90506110db88828860695403036113d7565b6110e584826113d7565b506110f9565b6110f98786606954036113d7565b84156111095761110986866113d7565b83156111a2576040516000906001600160a01b0389169086908381818185875af1925050503d806000811461115a576040519150601f19603f3d011682016040523d82523d6000602084013e61115f565b606091505b50509050806111a0576040516001600160a01b0388169086156108fc029087906000818181858888f1935050505015801561119e573d6000803e3d6000fd5b505b505b50505050505050565b60035460008054909163ffffffff600160201b909104811691811660020a168114156112085760405162461bcd60e51b815260040180806020018281038252602f815260200180611831602f913960400191505060405180910390fd5b6003805463ffffffff600160201b80830482166001019091160267ffffffff000000001990911617905582600080805b60005463ffffffff90811690821610156112e0576001851661129c5783925060028163ffffffff168154811061126a57fe5b906000526020600020015491508360018263ffffffff168154811061128b57fe5b6000918252602090912001556112c0565b60018163ffffffff16815481106112af57fe5b906000526020600020015492508391505b6112ca83836109dd565b9350600263ffffffff8616049450600101611238565b5060035460649063ffffffff908116600101166003805463ffffffff19169290910663ffffffff90811692909217908190558491600491166064811061132257fe5b01555050600354600160201b900463ffffffff1660001901949350505050565b341561137f5760405162461bcd60e51b81526004018080602001828103825260308152602001806119726030913960400191505060405180910390fd5b61138c33306069546115a8565b565b60006113d083836040518060400160405280601a81526020017f536166654d6174683a206469766973696f6e206279207a65726f00000000000081525061178e565b9392505050565b606f54604080516001600160a01b038581166024830152604480830186905283518084039091018152606490920183526020820180516001600160e01b031663a9059cbb60e01b178152925182516000956060959316939282918083835b602083106114545780518252601f199092019160209182019101611435565b6001836020036101000a0380198251168184511680821785525050505050509050019150506000604051808303816000865af19150503d80600081146114b6576040519150601f19603f3d011682016040523d82523d6000602084013e6114bb565b606091505b509150915081611506576040805162461bcd60e51b81526020600482015260116024820152706e6f7420656e6f75676820746f6b656e7360781b604482015290519081900360640190fd5b8051156115a257805160201461154d5760405162461bcd60e51b815260040180806020018281038252602a815260200180611860602a913960400191505060405180910390fd5b80806020019051602081101561156257600080fd5b50519150816115a25760405162461bcd60e51b81526004018080602001828103825260278152602001806118ba6027913960400191505060405180910390fd5b50505050565b606f54604080516001600160a01b0386811660248301528581166044830152606480830186905283518084039091018152608490920183526020820180516001600160e01b03166323b872dd60e01b178152925182516000956060959316939282918083835b6020831061162d5780518252601f19909201916020918201910161160e565b6001836020036101000a0380198251168184511680821785525050505050509050019150506000604051808303816000865af19150503d806000811461168f576040519150601f19603f3d011682016040523d82523d6000602084013e611694565b606091505b5091509150816116eb576040805162461bcd60e51b815260206004820152601960248201527f6e6f7420656e6f75676820616c6c6f77656420746f6b656e7300000000000000604482015290519081900360640190fd5b8051156117875780516020146117325760405162461bcd60e51b815260040180806020018281038252602a815260200180611860602a913960400191505060405180910390fd5b80806020019051602081101561174757600080fd5b50519150816117875760405162461bcd60e51b815260040180806020018281038252602f815260200180611902602f913960400191505060405180910390fd5b5050505050565b6000818361181a5760405162461bcd60e51b81526004018080602001828103825283818151815260200191508051906020019080838360005b838110156117df5781810151838201526020016117c7565b50505050905090810190601f16801561180c5780820380516001836020036101000a031916815260200191505b509250505060405180910390fd5b50600083858161182657fe5b049594505050505056fe4d65726b6c6520747265652069732066756c6c2e204e6f206d6f7265206c656166732063616e20626520616464656464617461206c656e6774682073686f756c64206265206569746865722030206f72203332206279746573496e636f727265637420726566756e6420616d6f756e742072656365697665642062792074686520636f6e74726163746e6f7420656e6f75676820746f6b656e732e20546f6b656e2072657475726e732066616c73652e5f72696768742073686f756c6420626520696e7369646520746865206669656c646e6f7420656e6f75676820616c6c6f77656420746f6b656e732e20546f6b656e2072657475726e732066616c73652e30644e72e131a029b85045b68181585d2833e84879b9709143e1f593f000000154686520636f6d6d69746d656e7420686173206265656e207375626d69747465644554482076616c756520697320737570706f73656420746f206265203020666f7220455243323020696e7374616e63654f6e6c79206f70657261746f722063616e2063616c6c20746869732066756e6374696f6e2ea265627a7a7231582028aa7561e325e8422f994b89b4b55657010796368b3736fa5a11d78144123e9264736f6c6343000511003264656e6f6d696e6174696f6e2073686f756c642062652067726561746572207468616e2030405787fa12a823e0f2b7631cc41b3ba8828b3321ca811111fa75cd3aa3bb5ace5f72696768742073686f756c6420626520696e7369646520746865206669656c645f747265654c6576656c732073686f756c642062652067726561746572207468616e207a65726f30644e72e131a029b85045b68181585d2833e84879b9709143e1f593f00000015f747265654c6576656c732073686f756c64206265206c657373207468616e203332b10e2d527612073b26eecdfd717e6a320cf44b4afac2b0732d9fcbe2b7fa0cf6",
  "source": "// https://tornado.cash\n/*\n* d888888P                                           dP              a88888b.                   dP\n*    88                                              88             d8'   `88                   88\n*    88    .d8888b. 88d888b. 88d888b. .d8888b. .d888b88 .d8888b.    88        .d8888b. .d8888b. 88d888b.\n*    88    88'  `88 88'  `88 88'  `88 88'  `88 88'  `88 88'  `88    88        88'  `88 Y8ooooo. 88'  `88\n*    88    88.  .88 88       88    88 88.  .88 88.  .88 88.  .88 dP Y8.   .88 88.  .88       88 88    88\n*    dP    `88888P' dP       dP    dP `88888P8 `88888P8 `88888P' 88  Y88888P' `88888P8 `88888P' dP    dP\n* ooooooooooooooooooooooooooooooooooooooooooooooooooooooooooooooooooooooooooooooooooooooooooooooooooooooo\n*/\n\npragma solidity 0.5.17;\n\nimport \"./Tornado.sol\";\nimport \"./SafeMath.sol\";\n\ncontract ERC20Tornado is Tornado {\n  address public token;\n\n  constructor(\n    IVerifier _verifier,\n    IFeeManager _feeManager,\n    uint256 _denomination,\n    uint32 _merkleTreeHeight,\n    address _operator,\n    address _token\n  ) Tornado(_verifier, _feeManager, _denomination, _merkleTreeHeight, _operator) public {\n    token = _token;\n  }\n\n  function _processDeposit() internal {\n    require(msg.value == 0, \"ETH value is supposed to be 0 for ERC20 instance\");\n    _safeErc20TransferFrom(msg.sender, address(this), denomination);\n  }\n\n  function _processWithdraw(address payable _recipient, address payable _relayer, uint256 _relayer_fee, uint256 _refund) internal {\n    require(msg.value == _refund, \"Incorrect refund amount received by the contract\");\n\n    address feeTo = feeManager.feeTo();\n    uint256 protocolFeeDivisor = feeManager.protocolFeeDivisor();\n\n    bool feeOn = feeTo != address(0) && protocolFeeDivisor != 0;\n    if (feeOn) {\n      uint256 protocolFee = SafeMath.div(denomination, protocolFeeDivisor);\n      _safeErc20Transfer(_recipient, denomination - _relayer_fee - protocolFee);\n      _safeErc20Transfer(feeTo, protocolFee);\n    } else {\n      _safeErc20Transfer(_recipient, denomination - _relayer_fee);\n    }\n\n    if (_relayer_fee > 0) {\n      _safeErc20Transfer(_relayer, _relayer_fee);\n    }\n\n    if (_refund > 0) {\n      (bool success, ) = _recipient.call.value(_refund)(\"\");\n      if (!success) {\n        // let's return _refund back to the relayer\n        _relayer.transfer(_refund);\n      }\n    }\n  }\n\n  function _safeErc20TransferFrom(address _from, address _to, uint256 _amount) internal {\n    (bool success, bytes memory data) = token.call(abi.encodeWithSelector(0x23b872dd /* transferFrom */, _from, _to, _amount));\n    require(success, \"not enough allowed tokens\");\n\n    // if contract returns some data lets make sure that is `true` according to standard\n    if (data.length > 0) {\n      require(data.length == 32, \"data length should be either 0 or 32 bytes\");\n      success = abi.decode(data, (bool));\n      require(success, \"not enough allowed tokens. Token returns false.\");\n    }\n  }\n\n  function _safeErc20Transfer(address _to, uint256 _amount) internal {\n    (bool success, bytes memory data) = token.call(abi.encodeWithSelector(0xa9059cbb /* transfer */, _to, _amount));\n    require(success, \"not enough tokens\");\n\n    // if contract returns some data lets make sure that is `true` according to standard\n    if (data.length > 0) {\n      require(data.length == 32, \"data length should be either 0 or 32 bytes\");\n      success = abi.decode(data, (bool));\n      require(success, \"not enough tokens. Token returns false.\");\n    }\n  }\n}\n",
  "sourcePath": "/home/home/dotfiles/tornado-core/contracts/ERC20Tornado.sol",
  "compiler": {
    "name": "solc",
    "version": "0.5.17+commit.d19bba13.Emscripten.clang"
  },
  "schemaVersion": "3.3.4",
  "updatedAt": "2021-04-12T00:15:10.039Z",
  "devdoc": {
    "methods": {
      "changeOperator(address)": {
        "details": "operator can change his address "
      },
      "deposit(bytes32)": {
        "details": "Deposit funds into the contract. The caller must send (for ETH) or approve (for ERC20) value equal to or `denomination` of this instance.",
        "params": {
          "_commitment": "the note commitment, which is PedersenHash(nullifier + secret)"
        }
      },
      "getLastRoot()": {
        "details": "Returns the last root"
      },
      "hashLeftRight(bytes32,bytes32)": {
        "details": "Hash 2 tree leaves, returns MiMC(_left, _right)"
      },
      "isKnownRoot(bytes32)": {
        "details": "Whether the root is present in the root history"
      },
      "isSpent(bytes32)": {
        "details": "whether a note is already spent "
      },
      "isSpentArray(bytes32[])": {
        "details": "whether an array of notes is already spent "
      },
      "updateVerifier(address)": {
        "details": "allow operator to update SNARK verification keys. This is needed to update keys after the final trusted setup ceremony is held. After that operator rights are supposed to be transferred to zero address"
      },
      "withdraw(bytes,bytes32,bytes32,address,address,uint256,uint256)": {
        "details": "Withdraw a deposit from the contract. `proof` is a zkSNARK proof data, and input is an array of circuit public inputs `input` array consists of: - merkle root of all deposits in the contract - hash of unique deposit nullifier to prevent double spends - the recipient of funds - optional fee that goes to the transaction sender (usually a relay)"
      }
    }
  },
  "userdoc": {
    "methods": {}
  }
}