{
  "contractName": "FeeManager",
  "abi": [
    {
      "inputs": [
        {
          "internalType": "address",
          "name": "_feeToSetter",
          "type": "address"
        }
      ],
      "payable": false,
      "stateMutability": "nonpayable",
      "type": "constructor"
    },
    {
      "constant": true,
      "inputs": [],
      "name": "MIN_PROTOCOL_FEE_DIVISOR",
      "outputs": [
        {
          "internalType": "uint256",
          "name": "",
          "type": "uint256"
        }
      ],
      "payable": false,
      "stateMutability": "view",
      "type": "function"
    },
    {
      "constant": true,
      "inputs": [],
      "name": "feeTo",
      "outputs": [
        {
          "internalType": "address",
          "name": "",
          "type": "address"
        }
      ],
      "payable": false,
      "stateMutability": "view",
      "type": "function"
    },
    {
      "constant": true,
      "inputs": [],
      "name": "feeToSetter",
      "outputs": [
        {
          "internalType": "address",
          "name": "",
          "type": "address"
        }
      ],
      "payable": false,
      "stateMutability": "view",
      "type": "function"
    },
    {
      "constant": true,
      "inputs": [],
      "name": "protocolFeeDivisor",
      "outputs": [
        {
          "internalType": "uint256",
          "name": "",
          "type": "uint256"
        }
      ],
      "payable": false,
      "stateMutability": "view",
      "type": "function"
    },
    {
      "constant": false,
      "inputs": [
        {
          "internalType": "address",
          "name": "_feeTo",
          "type": "address"
        }
      ],
      "name": "setFeeTo",
      "outputs": [],
      "payable": false,
      "stateMutability": "nonpayable",
      "type": "function"
    },
    {
      "constant": false,
      "inputs": [
        {
          "internalType": "address",
          "name": "_feeToSetter",
          "type": "address"
        }
      ],
      "name": "setFeeToSetter",
      "outputs": [],
      "payable": false,
      "stateMutability": "nonpayable",
      "type": "function"
    },
    {
      "constant": false,
      "inputs": [
        {
          "internalType": "uint256",
          "name": "_protocolFeeDivisor",
          "type": "uint256"
        }
      ],
      "name": "setProtocolFeeDivisor",
      "outputs": [],
      "payable": false,
      "stateMutability": "nonpayable",
      "type": "function"
    }
  ],
  "bytecode": "0x608060405260c860005534801561001557600080fd5b5060405161039c38038061039c8339818101604052602081101561003857600080fd5b5051600280546001600160a01b039092166001600160a01b0319909216919091179055600060035561032d8061006f6000396000f3fe608060405234801561001057600080fd5b506004361061007d5760003560e01c806370971aa71161005b57806370971aa7146100c8578063a2e74af6146100e7578063b72cd5121461010d578063f46901ed146101155761007d565b8063017e7e5814610082578063094b7415146100a65780633b46a6e7146100ae575b600080fd5b61008a61013b565b604080516001600160a01b039092168252519081900360200190f35b61008a61014a565b6100b6610159565b60408051918252519081900360200190f35b6100e5600480360360208110156100de57600080fd5b503561015f565b005b6100e5600480360360208110156100fd57600080fd5b50356001600160a01b031661020c565b6100b661027f565b6100e56004803603602081101561012b57600080fd5b50356001600160a01b0316610285565b6001546001600160a01b031681565b6002546001600160a01b031681565b60035481565b6002546001600160a01b031633146101b0576040805162461bcd60e51b815260206004820152600f60248201526e2837b7b31d102327a92124a22222a760891b604482015290519081900360640190fd5b600054811015610207576040805162461bcd60e51b815260206004820152601b60248201527f506f6f663a2050726f746f636f6c2066656520746f6f20686967680000000000604482015290519081900360640190fd5b600355565b6002546001600160a01b0316331461025d576040805162461bcd60e51b815260206004820152600f60248201526e2837b7b31d102327a92124a22222a760891b604482015290519081900360640190fd5b600280546001600160a01b0319166001600160a01b0392909216919091179055565b60005481565b6002546001600160a01b031633146102d6576040805162461bcd60e51b815260206004820152600f60248201526e2837b7b31d102327a92124a22222a760891b604482015290519081900360640190fd5b600180546001600160a01b0319166001600160a01b039290921691909117905556fea265627a7a72315820f540febae0ffa222749dcd2eb69b67411ddb6f3c1a3d8c13e0701743d180c3b064736f6c63430005110032",
  "source": "pragma solidity 0.5.17;\n\ncontract FeeManager {\n  // Maximum fee of 0.5%\n  uint256 public MIN_PROTOCOL_FEE_DIVISOR = 200;\n\n  address public feeTo;\n  address public feeToSetter;\n  uint256 public protocolFeeDivisor;\n\n  constructor(address _feeToSetter) public {\n    feeToSetter = _feeToSetter;\n    protocolFeeDivisor = 0;\n  }\n\n  function setFeeTo(address _feeTo) external {\n      require(msg.sender == feeToSetter, 'Poof: FORBIDDEN');\n      feeTo = _feeTo;\n  }\n\n  function setFeeToSetter(address _feeToSetter) external {\n      require(msg.sender == feeToSetter, 'Poof: FORBIDDEN');\n      feeToSetter = _feeToSetter;\n  }\n\n  function setProtocolFeeDivisor(uint256 _protocolFeeDivisor) external {\n      require(msg.sender == feeToSetter, 'Poof: FORBIDDEN');\n      require(_protocolFeeDivisor >= MIN_PROTOCOL_FEE_DIVISOR, 'Poof: Protocol fee too high');\n      protocolFeeDivisor = _protocolFeeDivisor;\n  }\n}\n",
  "sourcePath": "/home/home/dotfiles/tornado-core/contracts/FeeManager.sol",
  "compiler": {
    "name": "solc",
    "version": "0.5.17+commit.d19bba13.Emscripten.clang"
  },
  "schemaVersion": "3.3.4",
  "updatedAt": "2021-04-12T00:15:10.054Z",
  "devdoc": {
    "methods": {}
  },
  "userdoc": {
    "methods": {}
  }
}