{
  "contractName": "FeeManager",
  "abi": [
    {
      "inputs": [
        {
          "internalType": "address",
          "name": "_feeToSetter",
          "type": "address"
        }
      ],
      "payable": false,
      "stateMutability": "nonpayable",
      "type": "constructor"
    },
    {
      "constant": true,
      "inputs": [],
      "name": "feeTo",
      "outputs": [
        {
          "internalType": "address",
          "name": "",
          "type": "address"
        }
      ],
      "payable": false,
      "stateMutability": "view",
      "type": "function"
    },
    {
      "constant": true,
      "inputs": [],
      "name": "feeToSetter",
      "outputs": [
        {
          "internalType": "address",
          "name": "",
          "type": "address"
        }
      ],
      "payable": false,
      "stateMutability": "view",
      "type": "function"
    },
    {
      "constant": false,
      "inputs": [
        {
          "internalType": "address",
          "name": "_feeTo",
          "type": "address"
        }
      ],
      "name": "setFeeTo",
      "outputs": [],
      "payable": false,
      "stateMutability": "nonpayable",
      "type": "function"
    },
    {
      "constant": false,
      "inputs": [
        {
          "internalType": "address",
          "name": "_feeToSetter",
          "type": "address"
        }
      ],
      "name": "setFeeToSetter",
      "outputs": [],
      "payable": false,
      "stateMutability": "nonpayable",
      "type": "function"
    }
  ],
  "bytecode": "0x608060405234801561001057600080fd5b506040516102673803806102678339818101604052602081101561003357600080fd5b5051600180546001600160a01b0319166001600160a01b03909216919091179055610204806100636000396000f3fe608060405234801561001057600080fd5b506004361061004c5760003560e01c8063017e7e5814610051578063094b741514610075578063a2e74af61461007d578063f46901ed146100a5575b600080fd5b6100596100cb565b604080516001600160a01b039092168252519081900360200190f35b6100596100da565b6100a36004803603602081101561009357600080fd5b50356001600160a01b03166100e9565b005b6100a3600480360360208110156100bb57600080fd5b50356001600160a01b031661015c565b6000546001600160a01b031681565b6001546001600160a01b031681565b6001546001600160a01b0316331461013a576040805162461bcd60e51b815260206004820152600f60248201526e2837b7b31d102327a92124a22222a760891b604482015290519081900360640190fd5b600180546001600160a01b0319166001600160a01b0392909216919091179055565b6001546001600160a01b031633146101ad576040805162461bcd60e51b815260206004820152600f60248201526e2837b7b31d102327a92124a22222a760891b604482015290519081900360640190fd5b600080546001600160a01b0319166001600160a01b039290921691909117905556fea265627a7a72315820a0b1c5e2571525fdf052a571d7a5a1b3837ca98305095102ec0d6d1d879183b264736f6c63430005110032",
  "source": "pragma solidity 0.5.17;\n\ncontract FeeManager {\n  address public feeTo;\n  address public feeToSetter;\n\n  constructor(address _feeToSetter) public {\n    feeToSetter = _feeToSetter;\n  }\n\n  function setFeeTo(address _feeTo) external {\n      require(msg.sender == feeToSetter, 'Poof: FORBIDDEN');\n      feeTo = _feeTo;\n  }\n\n  function setFeeToSetter(address _feeToSetter) external {\n      require(msg.sender == feeToSetter, 'Poof: FORBIDDEN');\n      feeToSetter = _feeToSetter;\n  }\n}\n",
  "sourcePath": "/Users/brianli/dotfiles/tornado-core/contracts/FeeManager.sol",
  "compiler": {
    "name": "solc",
    "version": "0.5.17+commit.d19bba13.Emscripten.clang"
  },
  "schemaVersion": "3.3.4",
  "updatedAt": "2021-04-02T20:48:07.401Z",
  "devdoc": {
    "methods": {}
  },
  "userdoc": {
    "methods": {}
  }
}