{
  "contractName": "FeeManager",
  "abi": [
    {
      "inputs": [
        {
          "internalType": "address",
          "name": "_feeToSetter",
          "type": "address"
        }
      ],
      "payable": false,
      "stateMutability": "nonpayable",
      "type": "constructor"
    },
    {
      "constant": true,
      "inputs": [],
      "name": "MIN_PROTOCOL_FEE_DIVISOR",
      "outputs": [
        {
          "internalType": "uint256",
          "name": "",
          "type": "uint256"
        }
      ],
      "payable": false,
      "stateMutability": "view",
      "type": "function"
    },
    {
      "constant": true,
      "inputs": [],
      "name": "feeTo",
      "outputs": [
        {
          "internalType": "address",
          "name": "",
          "type": "address"
        }
      ],
      "payable": false,
      "stateMutability": "view",
      "type": "function"
    },
    {
      "constant": true,
      "inputs": [],
      "name": "feeToSetter",
      "outputs": [
        {
          "internalType": "address",
          "name": "",
          "type": "address"
        }
      ],
      "payable": false,
      "stateMutability": "view",
      "type": "function"
    },
    {
      "constant": true,
      "inputs": [],
      "name": "protocolFeeDivisor",
      "outputs": [
        {
          "internalType": "uint256",
          "name": "",
          "type": "uint256"
        }
      ],
      "payable": false,
      "stateMutability": "view",
      "type": "function"
    },
    {
      "constant": false,
      "inputs": [
        {
          "internalType": "address",
          "name": "_feeTo",
          "type": "address"
        }
      ],
      "name": "setFeeTo",
      "outputs": [],
      "payable": false,
      "stateMutability": "nonpayable",
      "type": "function"
    },
    {
      "constant": false,
      "inputs": [
        {
          "internalType": "address",
          "name": "_feeToSetter",
          "type": "address"
        }
      ],
      "name": "setFeeToSetter",
      "outputs": [],
      "payable": false,
      "stateMutability": "nonpayable",
      "type": "function"
    },
    {
      "constant": false,
      "inputs": [
        {
          "internalType": "uint256",
          "name": "_protocolFeeDivisor",
          "type": "uint256"
        }
      ],
      "name": "setProtocolFeeDivisor",
      "outputs": [],
      "payable": false,
      "stateMutability": "nonpayable",
      "type": "function"
    },
    {
      "constant": false,
      "inputs": [],
      "name": "clearFee",
      "outputs": [],
      "payable": false,
      "stateMutability": "nonpayable",
      "type": "function"
    }
  ],
  "bytecode": "0x608060405234801561001057600080fd5b506040516104fe3803806104fe8339818101604052602081101561003357600080fd5b5051600180546001600160a01b0319166001600160a01b0390921691909117905561049b806100636000396000f3fe608060405234801561001057600080fd5b50600436106100885760003560e01c806370971aa71161005b57806370971aa7146100dd578063a2e74af6146100fa578063b72cd51214610120578063f46901ed1461012857610088565b8063017e7e581461008d578063094b7415146100b1578063315c2121146100b95780633b46a6e7146100c3575b600080fd5b61009561014e565b604080516001600160a01b039092168252519081900360200190f35b61009561015d565b6100c161016c565b005b6100cb6101ca565b60408051918252519081900360200190f35b6100c1600480360360208110156100f357600080fd5b50356101d0565b6100c16004803603602081101561011057600080fd5b50356001600160a01b031661026c565b6100cb61032a565b6100c16004803603602081101561013e57600080fd5b50356001600160a01b031661032f565b6000546001600160a01b031681565b6001546001600160a01b031681565b6001546001600160a01b031633146101c3576040805162461bcd60e51b81526020600482015260156024820152742332b2a6b0b730b3b2b91d102327a92124a22222a760591b604482015290519081900360640190fd5b6000600255565b60025481565b6001546001600160a01b03163314610227576040805162461bcd60e51b81526020600482015260156024820152742332b2a6b0b730b3b2b91d102327a92124a22222a760591b604482015290519081900360640190fd5b60c88110156102675760405162461bcd60e51b81526004018080602001828103825260218152602001806103ee6021913960400191505060405180910390fd5b600255565b6001546001600160a01b031633146102c3576040805162461bcd60e51b81526020600482015260156024820152742332b2a6b0b730b3b2b91d102327a92124a22222a760591b604482015290519081900360640190fd5b6001600160a01b0381166103085760405162461bcd60e51b815260040180806020018281038252602f815260200180610438602f913960400191505060405180910390fd5b600180546001600160a01b0319166001600160a01b0392909216919091179055565b60c881565b6001546001600160a01b03163314610386576040805162461bcd60e51b81526020600482015260156024820152742332b2a6b0b730b3b2b91d102327a92124a22222a760591b604482015290519081900360640190fd5b6001600160a01b0381166103cb5760405162461bcd60e51b815260040180806020018281038252602981526020018061040f6029913960400191505060405180910390fd5b600080546001600160a01b0319166001600160a01b039290921691909117905556fe4665654d616e616765723a2050726f746f636f6c2066656520746f6f20686967684665654d616e616765723a206e657720666565546f20697320746865207a65726f20616464726573734665654d616e616765723a206e657720666565546f53657474657220697320746865207a65726f2061646472657373a265627a7a723158202eb474ee297abfc7861180a50b9f73ee0c9ce9a535a3ce1e7ab145f0bf0a0b2164736f6c63430005110032",
  "source": "pragma solidity 0.5.17;\n\ncontract FeeManager {\n  // Maximum fee of 0.5%\n  uint256 constant public MIN_PROTOCOL_FEE_DIVISOR = 200;\n\n  address public feeTo;\n  address public feeToSetter;\n  uint256 public protocolFeeDivisor;\n\n  constructor(address _feeToSetter) public {\n    feeToSetter = _feeToSetter;\n  }\n\n  function setFeeTo(address _feeTo) external {\n      require(msg.sender == feeToSetter, 'FeeManager: FORBIDDEN');\n      require(_feeTo != address(0), 'FeeManager: new feeTo is the zero address');\n      feeTo = _feeTo;\n  }\n\n  function setFeeToSetter(address _feeToSetter) external {\n      require(msg.sender == feeToSetter, 'FeeManager: FORBIDDEN');\n      require(_feeToSetter != address(0), 'FeeManager: new feeToSetter is the zero address');\n      feeToSetter = _feeToSetter;\n  }\n\n  function setProtocolFeeDivisor(uint256 _protocolFeeDivisor) external {\n      require(msg.sender == feeToSetter, 'FeeManager: FORBIDDEN');\n      require(_protocolFeeDivisor >= MIN_PROTOCOL_FEE_DIVISOR, 'FeeManager: Protocol fee too high');\n      protocolFeeDivisor = _protocolFeeDivisor;\n  }\n\n  function clearFee() external {\n      require(msg.sender == feeToSetter, 'FeeManager: FORBIDDEN');\n      protocolFeeDivisor = 0;\n  }\n}\n",
  "sourcePath": "/home/home/dotfiles/tornado-core/contracts/FeeManager.sol",
  "compiler": {
    "name": "solc",
    "version": "0.5.17+commit.d19bba13.Emscripten.clang"
  },
  "schemaVersion": "3.3.4",
  "updatedAt": "2021-04-19T04:55:01.718Z",
  "networkType": "ethereum",
  "devdoc": {
    "methods": {}
  },
  "userdoc": {
    "methods": {}
  }
}