{
  "contractName": "MerkleTreeWithHistory",
  "abi": [
    {
      "inputs": [
        {
          "internalType": "uint32",
          "name": "_treeLevels",
          "type": "uint32"
        }
      ],
      "payable": false,
      "stateMutability": "nonpayable",
      "type": "constructor"
    },
    {
      "constant": true,
      "inputs": [],
      "name": "FIELD_SIZE",
      "outputs": [
        {
          "internalType": "uint256",
          "name": "",
          "type": "uint256"
        }
      ],
      "payable": false,
      "stateMutability": "view",
      "type": "function"
    },
    {
      "constant": true,
      "inputs": [],
      "name": "ROOT_HISTORY_SIZE",
      "outputs": [
        {
          "internalType": "uint32",
          "name": "",
          "type": "uint32"
        }
      ],
      "payable": false,
      "stateMutability": "view",
      "type": "function"
    },
    {
      "constant": true,
      "inputs": [],
      "name": "ZERO_VALUE",
      "outputs": [
        {
          "internalType": "uint256",
          "name": "",
          "type": "uint256"
        }
      ],
      "payable": false,
      "stateMutability": "view",
      "type": "function"
    },
    {
      "constant": true,
      "inputs": [],
      "name": "currentRootIndex",
      "outputs": [
        {
          "internalType": "uint32",
          "name": "",
          "type": "uint32"
        }
      ],
      "payable": false,
      "stateMutability": "view",
      "type": "function"
    },
    {
      "constant": true,
      "inputs": [
        {
          "internalType": "uint256",
          "name": "",
          "type": "uint256"
        }
      ],
      "name": "filledSubtrees",
      "outputs": [
        {
          "internalType": "bytes32",
          "name": "",
          "type": "bytes32"
        }
      ],
      "payable": false,
      "stateMutability": "view",
      "type": "function"
    },
    {
      "constant": true,
      "inputs": [],
      "name": "levels",
      "outputs": [
        {
          "internalType": "uint32",
          "name": "",
          "type": "uint32"
        }
      ],
      "payable": false,
      "stateMutability": "view",
      "type": "function"
    },
    {
      "constant": true,
      "inputs": [],
      "name": "nextIndex",
      "outputs": [
        {
          "internalType": "uint32",
          "name": "",
          "type": "uint32"
        }
      ],
      "payable": false,
      "stateMutability": "view",
      "type": "function"
    },
    {
      "constant": true,
      "inputs": [
        {
          "internalType": "uint256",
          "name": "",
          "type": "uint256"
        }
      ],
      "name": "roots",
      "outputs": [
        {
          "internalType": "bytes32",
          "name": "",
          "type": "bytes32"
        }
      ],
      "payable": false,
      "stateMutability": "view",
      "type": "function"
    },
    {
      "constant": true,
      "inputs": [
        {
          "internalType": "uint256",
          "name": "",
          "type": "uint256"
        }
      ],
      "name": "zeros",
      "outputs": [
        {
          "internalType": "bytes32",
          "name": "",
          "type": "bytes32"
        }
      ],
      "payable": false,
      "stateMutability": "view",
      "type": "function"
    },
    {
      "constant": true,
      "inputs": [
        {
          "internalType": "bytes32",
          "name": "_left",
          "type": "bytes32"
        },
        {
          "internalType": "bytes32",
          "name": "_right",
          "type": "bytes32"
        }
      ],
      "name": "hashLeftRight",
      "outputs": [
        {
          "internalType": "bytes32",
          "name": "",
          "type": "bytes32"
        }
      ],
      "payable": false,
      "stateMutability": "pure",
      "type": "function"
    },
    {
      "constant": true,
      "inputs": [
        {
          "internalType": "bytes32",
          "name": "_root",
          "type": "bytes32"
        }
      ],
      "name": "isKnownRoot",
      "outputs": [
        {
          "internalType": "bool",
          "name": "",
          "type": "bool"
        }
      ],
      "payable": false,
      "stateMutability": "view",
      "type": "function"
    },
    {
      "constant": true,
      "inputs": [],
      "name": "getLastRoot",
      "outputs": [
        {
          "internalType": "bytes32",
          "name": "",
          "type": "bytes32"
        }
      ],
      "payable": false,
      "stateMutability": "view",
      "type": "function"
    }
  ],
  "bytecode": "0x6080604052600380546001600160401b031916905534801561002057600080fd5b506040516109e23803806109e28339818101604052602081101561004357600080fd5b505163ffffffff81166100875760405162461bcd60e51b81526004018080602001828103825260278152602001806109596027913960400191505060405180910390fd5b60208163ffffffff16106100cc5760405162461bcd60e51b81526004018080602001828103825260228152602001806109a06022913960400191505060405180910390fd5b6000805463ffffffff191663ffffffff83161781556002805460018181019092557f2fe54c60d3acabf3343a35b6eba15db4821b340f76e741e2249685ed4899af6c60008051602061091883398151915290910181905581548083018355928290526000805160206109c28339815191529092018290555b60005463ffffffff90811690821610156101b25761016b82806001600160e01b036101d116565b600280546001818101909255600080516020610918833981519152018290558054808201825560008290526000805160206109c28339815191520182905590925001610144565b506101c681806001600160e01b036101d116565b600455506103b29050565b60006000805160206109808339815191528310610235576040805162461bcd60e51b815260206004820181905260248201527f5f6c6566742073686f756c6420626520696e7369646520746865206669656c64604482015290519081900360640190fd5b60008051602061098083398151915282106102815760405162461bcd60e51b81526004018080602001828103825260218152602001806109386021913960400191505060405180910390fd5b6040805163f47d33b560e01b81526004810185905260006024820181905282518693919273__Hasher________________________________9263f47d33b592604480840193829003018186803b1580156102db57600080fd5b505af41580156102ef573d6000803e3d6000fd5b505050506040513d604081101561030557600080fd5b5080516020909101519092509050600080516020610980833981519152848308915073__Hasher________________________________63f47d33b583836040518363ffffffff1660e01b81526004018083815260200182815260200192505050604080518083038186803b15801561037d57600080fd5b505af4158015610391573d6000803e3d6000fd5b505050506040513d60408110156103a757600080fd5b505195945050505050565b610557806103c16000396000f3fe608060405234801561001057600080fd5b50600436106100b45760003560e01c8063c2b40ae411610071578063c2b40ae414610158578063cd87a3b414610175578063e82955881461017d578063ec7329591461019a578063f178e47c146101a2578063fc7e9c6f146101bf576100b4565b806338bf282e146100b9578063414a37ba146100ee5780634ecf518b146100f65780636d9833e31461011757806390eeb02b14610148578063ba70f75714610150575b600080fd5b6100dc600480360360408110156100cf57600080fd5b50803590602001356101c7565b60408051918252519081900360200190f35b6100dc6103a8565b6100fe6103ba565b6040805163ffffffff9092168252519081900360200190f35b6101346004803603602081101561012d57600080fd5b50356103c6565b604080519115158252519081900360200190f35b6100fe610439565b6100dc610445565b6100dc6004803603602081101561016e57600080fd5b5035610465565b6100fe610479565b6100dc6004803603602081101561019357600080fd5b503561047e565b6100dc61049c565b6100dc600480360360208110156101b857600080fd5b50356104c0565b6100fe6104cd565b6000600080516020610503833981519152831061022b576040805162461bcd60e51b815260206004820181905260248201527f5f6c6566742073686f756c6420626520696e7369646520746865206669656c64604482015290519081900360640190fd5b60008051602061050383398151915282106102775760405162461bcd60e51b81526004018080602001828103825260218152602001806104e26021913960400191505060405180910390fd5b6040805163f47d33b560e01b81526004810185905260006024820181905282518693919273__Hasher________________________________9263f47d33b592604480840193829003018186803b1580156102d157600080fd5b505af41580156102e5573d6000803e3d6000fd5b505050506040513d60408110156102fb57600080fd5b5080516020909101519092509050600080516020610503833981519152848308915073__Hasher________________________________63f47d33b583836040518363ffffffff1660e01b81526004018083815260200182815260200192505050604080518083038186803b15801561037357600080fd5b505af4158015610387573d6000803e3d6000fd5b505050506040513d604081101561039d57600080fd5b505195945050505050565b60008051602061050383398151915281565b60005463ffffffff1681565b6000816103d557506000610434565b60035463ffffffff165b60048163ffffffff16606481106103f257fe5b0154831415610405576001915050610434565b63ffffffff8116610414575060645b6003546000199091019063ffffffff808316911614156103df5760009150505b919050565b60035463ffffffff1681565b60035460009060049063ffffffff166064811061045e57fe5b0154905090565b6004816064811061047257fe5b0154905081565b606481565b6002818154811061048b57fe5b600091825260209091200154905081565b7f2fe54c60d3acabf3343a35b6eba15db4821b340f76e741e2249685ed4899af6c81565b6001818154811061048b57fe5b600354640100000000900463ffffffff168156fe5f72696768742073686f756c6420626520696e7369646520746865206669656c6430644e72e131a029b85045b68181585d2833e84879b9709143e1f593f0000001a265627a7a723158203e34e6889fcd55a3259a105355d3cf84f390aff07d8d72e13a720ee1b898209464736f6c63430005110032405787fa12a823e0f2b7631cc41b3ba8828b3321ca811111fa75cd3aa3bb5ace5f72696768742073686f756c6420626520696e7369646520746865206669656c645f747265654c6576656c732073686f756c642062652067726561746572207468616e207a65726f30644e72e131a029b85045b68181585d2833e84879b9709143e1f593f00000015f747265654c6576656c732073686f756c64206265206c657373207468616e203332b10e2d527612073b26eecdfd717e6a320cf44b4afac2b0732d9fcbe2b7fa0cf6",
  "source": "// https://tornado.cash\n/*\n* d888888P                                           dP              a88888b.                   dP\n*    88                                              88             d8'   `88                   88\n*    88    .d8888b. 88d888b. 88d888b. .d8888b. .d888b88 .d8888b.    88        .d8888b. .d8888b. 88d888b.\n*    88    88'  `88 88'  `88 88'  `88 88'  `88 88'  `88 88'  `88    88        88'  `88 Y8ooooo. 88'  `88\n*    88    88.  .88 88       88    88 88.  .88 88.  .88 88.  .88 dP Y8.   .88 88.  .88       88 88    88\n*    dP    `88888P' dP       dP    dP `88888P8 `88888P8 `88888P' 88  Y88888P' `88888P8 `88888P' dP    dP\n* ooooooooooooooooooooooooooooooooooooooooooooooooooooooooooooooooooooooooooooooooooooooooooooooooooooooo\n*/\n\npragma solidity 0.5.17;\n\nlibrary Hasher {\n  function MiMCSponge(uint256 in_xL, uint256 in_xR) public pure returns (uint256 xL, uint256 xR);\n}\n\ncontract MerkleTreeWithHistory {\n  uint256 public constant FIELD_SIZE = 21888242871839275222246405745257275088548364400416034343698204186575808495617;\n  uint256 public constant ZERO_VALUE = 21663839004416932945382355908790599225266501822907911457504978515578255421292; // = keccak256(\"tornado\") % FIELD_SIZE\n\n  uint32 public levels;\n\n  // the following variables are made public for easier testing and debugging and\n  // are not supposed to be accessed in regular code\n  bytes32[] public filledSubtrees;\n  bytes32[] public zeros;\n  uint32 public currentRootIndex = 0;\n  uint32 public nextIndex = 0;\n  uint32 public constant ROOT_HISTORY_SIZE = 100;\n  bytes32[ROOT_HISTORY_SIZE] public roots;\n\n  constructor(uint32 _treeLevels) public {\n    require(_treeLevels > 0, \"_treeLevels should be greater than zero\");\n    require(_treeLevels < 32, \"_treeLevels should be less than 32\");\n    levels = _treeLevels;\n\n    bytes32 currentZero = bytes32(ZERO_VALUE);\n    zeros.push(currentZero);\n    filledSubtrees.push(currentZero);\n\n    for (uint32 i = 1; i < levels; i++) {\n      currentZero = hashLeftRight(currentZero, currentZero);\n      zeros.push(currentZero);\n      filledSubtrees.push(currentZero);\n    }\n\n    roots[0] = hashLeftRight(currentZero, currentZero);\n  }\n\n  /**\n    @dev Hash 2 tree leaves, returns MiMC(_left, _right)\n  */\n  function hashLeftRight(bytes32 _left, bytes32 _right) public pure returns (bytes32) {\n    require(uint256(_left) < FIELD_SIZE, \"_left should be inside the field\");\n    require(uint256(_right) < FIELD_SIZE, \"_right should be inside the field\");\n    uint256 R = uint256(_left);\n    uint256 C = 0;\n    (R, C) = Hasher.MiMCSponge(R, C);\n    R = addmod(R, uint256(_right), FIELD_SIZE);\n    (R, C) = Hasher.MiMCSponge(R, C);\n    return bytes32(R);\n  }\n\n  function _insert(bytes32 _leaf) internal returns(uint32 index) {\n    uint32 currentIndex = nextIndex;\n    require(currentIndex != uint32(2)**levels, \"Merkle tree is full. No more leafs can be added\");\n    nextIndex += 1;\n    bytes32 currentLevelHash = _leaf;\n    bytes32 left;\n    bytes32 right;\n\n    for (uint32 i = 0; i < levels; i++) {\n      if (currentIndex % 2 == 0) {\n        left = currentLevelHash;\n        right = zeros[i];\n\n        filledSubtrees[i] = currentLevelHash;\n      } else {\n        left = filledSubtrees[i];\n        right = currentLevelHash;\n      }\n\n      currentLevelHash = hashLeftRight(left, right);\n\n      currentIndex /= 2;\n    }\n\n    currentRootIndex = (currentRootIndex + 1) % ROOT_HISTORY_SIZE;\n    roots[currentRootIndex] = currentLevelHash;\n    return nextIndex - 1;\n  }\n\n  /**\n    @dev Whether the root is present in the root history\n  */\n  function isKnownRoot(bytes32 _root) public view returns(bool) {\n    if (_root == 0) {\n      return false;\n    }\n    uint32 i = currentRootIndex;\n    do {\n      if (_root == roots[i]) {\n        return true;\n      }\n      if (i == 0) {\n        i = ROOT_HISTORY_SIZE;\n      }\n      i--;\n    } while (i != currentRootIndex);\n    return false;\n  }\n\n  /**\n    @dev Returns the last root\n  */\n  function getLastRoot() public view returns(bytes32) {\n    return roots[currentRootIndex];\n  }\n}\n",
  "sourcePath": "/home/home/dotfiles/tornado-core/contracts/MerkleTreeWithHistory.sol",
  "compiler": {
    "name": "solc",
    "version": "0.5.17+commit.d19bba13.Emscripten.clang"
  },
  "schemaVersion": "3.3.4",
  "updatedAt": "2021-04-04T20:21:29.859Z",
  "devdoc": {
    "methods": {
      "getLastRoot()": {
        "details": "Returns the last root"
      },
      "hashLeftRight(bytes32,bytes32)": {
        "details": "Hash 2 tree leaves, returns MiMC(_left, _right)"
      },
      "isKnownRoot(bytes32)": {
        "details": "Whether the root is present in the root history"
      }
    }
  },
  "userdoc": {
    "methods": {}
  }
}