{
  "contractName": "MerkleTreeWithHistory",
  "abi": [
    {
      "constant": true,
      "inputs": [],
      "name": "next_index",
      "outputs": [
        {
          "name": "",
          "type": "uint32"
        }
      ],
      "payable": false,
      "stateMutability": "view",
      "type": "function"
    },
    {
      "constant": true,
      "inputs": [],
      "name": "current_root",
      "outputs": [
        {
          "name": "",
          "type": "uint256"
        }
      ],
      "payable": false,
      "stateMutability": "view",
      "type": "function"
    },
    {
      "constant": true,
      "inputs": [
        {
          "name": "",
          "type": "uint256"
        }
      ],
      "name": "filled_subtrees",
      "outputs": [
        {
          "name": "",
          "type": "uint256"
        }
      ],
      "payable": false,
      "stateMutability": "view",
      "type": "function"
    },
    {
      "constant": true,
      "inputs": [
        {
          "name": "",
          "type": "uint256"
        }
      ],
      "name": "roots",
      "outputs": [
        {
          "name": "",
          "type": "uint256"
        }
      ],
      "payable": false,
      "stateMutability": "view",
      "type": "function"
    },
    {
      "constant": true,
      "inputs": [
        {
          "name": "",
          "type": "uint256"
        }
      ],
      "name": "zeros",
      "outputs": [
        {
          "name": "",
          "type": "uint256"
        }
      ],
      "payable": false,
      "stateMutability": "view",
      "type": "function"
    },
    {
      "inputs": [
        {
          "name": "tree_levels",
          "type": "uint8"
        },
        {
          "name": "zero_value",
          "type": "uint256"
        }
      ],
      "payable": false,
      "stateMutability": "nonpayable",
      "type": "constructor"
    },
    {
      "anonymous": false,
      "inputs": [
        {
          "indexed": false,
          "name": "leaf",
          "type": "uint256"
        },
        {
          "indexed": false,
          "name": "leaf_index",
          "type": "uint32"
        }
      ],
      "name": "LeafAdded",
      "type": "event"
    },
    {
      "constant": true,
      "inputs": [
        {
          "name": "left",
          "type": "uint256"
        },
        {
          "name": "right",
          "type": "uint256"
        }
      ],
      "name": "HashLeftRight",
      "outputs": [
        {
          "name": "mimc_hash",
          "type": "uint256"
        }
      ],
      "payable": false,
      "stateMutability": "pure",
      "type": "function"
    },
    {
      "constant": true,
      "inputs": [],
      "name": "getLastRoot",
      "outputs": [
        {
          "name": "",
          "type": "uint256"
        }
      ],
      "payable": false,
      "stateMutability": "view",
      "type": "function"
    }
  ],
  "bytecode": "0x608060405260006002556000600560006101000a81548163ffffffff021916908363ffffffff16021790555034801561003757600080fd5b5060405160408061095e8339810180604052604081101561005757600080fd5b810190808051906020019092919080519060200190929190505050816000806101000a81548160ff021916908360ff1602179055506004819080600181540180825580915050906001820390600052602060002001600090919290919091505550600360046000815481106100c857fe5b906000526020600020015490806001815401808255809150509060018203906000526020600020016000909192909190915055506000600190505b6000809054906101000a900460ff1660ff168160ff1610156101e757600461016b60046001840360ff168154811061013757fe5b906000526020600020015460046001850360ff168154811061015557fe5b90600052602060002001546102bb60201b60201c565b9080600181540180825580915050906001820390600052602060002001600090919290919091505550600360048260ff16815481106101a657fe5b906000526020600020015490806001815401808255809150509060018203906000526020600020016000909192909190915055508080600101915050610103565b50606460ff1660405190808252806020026020018201604052801561021b5781602001602082028038833980820191505090505b5060019080519060200190610231929190610469565b50610298600460016000809054906101000a900460ff160360ff168154811061025657fe5b9060005260206000200154600460016000809054906101000a900460ff160360ff168154811061028257fe5b90600052602060002001546102bb60201b60201c565b60016000815481106102a657fe5b906000526020600020018190555050506104db565b6000807f30644e72e131a029b85045b68181585d2833e84879b9709143e1f593f000000190506000809050600080905082806102f357fe5b868308915073__MiMC__________________________________633f1a1187838360006040518463ffffffff1660e01b8152600401808481526020018381526020018281526020019350505050604080518083038186803b15801561035757600080fd5b505af415801561036b573d6000803e3d6000fd5b505050506040513d604081101561038157600080fd5b810190808051906020019092919080519060200190929190505050809250819350505082806103ac57fe5b858308915073__MiMC__________________________________633f1a1187838360006040518463ffffffff1660e01b8152600401808481526020018381526020018281526020019350505050604080518083038186803b15801561041057600080fd5b505af4158015610424573d6000803e3d6000fd5b505050506040513d604081101561043a57600080fd5b810190808051906020019092919080519060200190929190505050809250819350505081935050505092915050565b8280548282559060005260206000209081019282156104a5579160200282015b828111156104a4578251825591602001919060010190610489565b5b5090506104b291906104b6565b5090565b6104d891905b808211156104d45760008160009055506001016104bc565b5090565b90565b610474806104ea6000396000f3fe608060405234801561001057600080fd5b506004361061007d5760003560e01c8063a9e5a7f51161005b578063a9e5a7f514610116578063ba70f75714610158578063c2b40ae414610176578063e8295588146101b85761007d565b8063424619c21461008257806365576fab146100ce5780638b145d6d146100f8575b600080fd5b6100b86004803603604081101561009857600080fd5b8101908080359060200190929190803590602001909291905050506101fa565b6040518082815260200191505060405180910390f35b6100d66103a8565b604051808263ffffffff1663ffffffff16815260200191505060405180910390f35b6101006103be565b6040518082815260200191505060405180910390f35b6101426004803603602081101561012c57600080fd5b81019080803590602001909291905050506103c4565b6040518082815260200191505060405180910390f35b6101606103e5565b6040518082815260200191505060405180910390f35b6101a26004803603602081101561018c57600080fd5b8101908080359060200190929190505050610406565b6040518082815260200191505060405180910390f35b6101e4600480360360208110156101ce57600080fd5b8101908080359060200190929190505050610427565b6040518082815260200191505060405180910390f35b6000807f30644e72e131a029b85045b68181585d2833e84879b9709143e1f593f0000001905060008090506000809050828061023257fe5b868308915073__MiMC__________________________________633f1a1187838360006040518463ffffffff1660e01b8152600401808481526020018381526020018281526020019350505050604080518083038186803b15801561029657600080fd5b505af41580156102aa573d6000803e3d6000fd5b505050506040513d60408110156102c057600080fd5b810190808051906020019092919080519060200190929190505050809250819350505082806102eb57fe5b858308915073__MiMC__________________________________633f1a1187838360006040518463ffffffff1660e01b8152600401808481526020018381526020018281526020019350505050604080518083038186803b15801561034f57600080fd5b505af4158015610363573d6000803e3d6000fd5b505050506040513d604081101561037957600080fd5b810190808051906020019092919080519060200190929190505050809250819350505081935050505092915050565b600560009054906101000a900463ffffffff1681565b60025481565b600381815481106103d157fe5b906000526020600020016000915090505481565b60006001600254815481106103f657fe5b9060005260206000200154905090565b6001818154811061041357fe5b906000526020600020016000915090505481565b6004818154811061043457fe5b90600052602060002001600091509050548156fea165627a7a72305820ceea928cb86b2c5754c8b2a0988aa329ea26eabb70a7fd803aa24baab04c72e80029",
  "source": "pragma solidity ^0.5.8;\n\nlibrary MiMC {\n  function MiMCSponge(uint256 in_xL, uint256 in_xR, uint256 in_k) public pure returns (uint256 xL, uint256 xR);\n}\n\ncontract MerkleTreeWithHistory {\n  uint8 levels;\n\n  uint8 constant ROOT_HISTORY_SIZE = 100;\n  uint256[] public roots;\n  uint256 public current_root = 0;\n\n  uint256[] public filled_subtrees;\n  uint256[] public zeros;\n\n  uint32 public next_index = 0;\n\n  event LeafAdded(uint256 leaf, uint32 leaf_index);\n\n  constructor(uint8 tree_levels, uint256 zero_value) public {\n    levels = tree_levels;\n\n    zeros.push(zero_value);\n    filled_subtrees.push(zeros[0]);\n\n    for (uint8 i = 1; i < levels; i++) {\n      zeros.push(HashLeftRight(zeros[i-1], zeros[i-1]));\n      filled_subtrees.push(zeros[i]);\n    }\n\n    roots = new uint256[](ROOT_HISTORY_SIZE);\n    roots[0] = HashLeftRight(zeros[levels - 1], zeros[levels - 1]);\n  }\n\n  function HashLeftRight(uint256 left, uint256 right) public pure returns (uint256 mimc_hash) {\n    uint256 k = 21888242871839275222246405745257275088548364400416034343698204186575808495617;\n    uint256 R = 0;\n    uint256 C = 0;\n\n    R = addmod(R, left, k);\n    (R, C) = MiMC.MiMCSponge(R, C, 0);\n\n    R = addmod(R, right, k);\n    (R, C) = MiMC.MiMCSponge(R, C, 0);\n\n    mimc_hash = R;\n  }\n\n  function insert(uint256 leaf) internal {\n    uint32 leaf_index = next_index;\n    uint32 current_index = next_index;\n    next_index += 1;\n\n    uint256 current_level_hash = leaf;\n    uint256 left;\n    uint256 right;\n\n    for (uint8 i = 0; i < levels; i++) {\n      if (current_index % 2 == 0) {\n        left = current_level_hash;\n        right = zeros[i];\n\n        filled_subtrees[i] = current_level_hash;\n      } else {\n        left = filled_subtrees[i];\n        right = current_level_hash;\n      }\n\n      current_level_hash = HashLeftRight(left, right);\n\n      current_index /= 2;\n    }\n\n    current_root = (current_root + 1) % ROOT_HISTORY_SIZE;\n    roots[current_root] = current_level_hash;\n\n    emit LeafAdded(leaf, leaf_index);\n  }\n\n  function isKnownRoot(uint _root) internal view returns(bool) {\n    if (_root == 0) {\n      return false;\n    }\n    // search most recent first\n    uint256 i;\n    for(i = current_root; i >= 0; i--) {\n      if (_root == roots[i]) {\n        return true;\n      }\n    }\n    for(i = ROOT_HISTORY_SIZE - 1; i > current_root; i--) {\n      if (_root == roots[i]) {\n        return true;\n      }\n    }\n    return false;\n  }\n\n  function getLastRoot() public view returns(uint256) {\n    return roots[current_root];\n  }\n}\n\n\n",
  "sourcePath": "/Users/poma/dev/mixer/contracts/contracts/MerkleTreeWithHistory.sol",
  "compiler": {
    "name": "solc",
    "version": "0.5.8+commit.23d335f2.Emscripten.clang"
  },
  "schemaVersion": "3.0.11",
  "updatedAt": "2019-07-09T12:37:28.573Z",
  "devdoc": {
    "methods": {}
  },
  "userdoc": {
    "methods": {}
  }
}